:020000040800F2
:10000000500C00208D1400082D0600082F06000853
:1000100033060008370600083B0600080000000011
:100020000000000000000000000000003F06000883
:1000300041060008000000004306000845060008CD
:10004000A7140008A7140008A7140008A7140008A4
:10005000A7140008A7140008A7140008A714000894
:10006000A7140008A7140008A7140008A714000884
:10007000A7140008A7140008A7140008A714000874
:10008000A7140008A7140008A7140008A714000864
:10009000A7140008A7140008A7140008A714000854
:1000A000A7140008A7140008A7140008A714000844
:1000B000A7140008A7140008A70A0008A71400083E
:1000C000A7140008A7140008A7140008A714000824
:1000D000A71400080114000897080008870B0008FF
:1000E000A7140008A7140008A7140008A714000804
:1000F000A7140008A7140008A7140008A7140008F4
:10010000A7140008A7140008A7140008A7140008E3
:10011000A7140008A7140008A7140008A7140008D3
:10012000A7140008A7140008A7140008A7140008C3
:1001300000F002F800F090F80AA090E8000C824469
:100140008344AAF10107DA4501D100F085F8AFF246
:10015000090EBAE80F0013F0010F18BFFB1A43F0A5
:10016000010318472C4A00004C4A0000103A24BFF3
:1001700078C878C1FAD8520724BF30C830C144BF0C
:1001800004680C607047000000230024002500264E
:10019000103A28BF78C1FBD8520728BF30C148BFEA
:1001A0000B6070476E2903F00A82702903F0758393
:1001B000662904F08084652904F07D84672904F0B1
:1001C0007A846129AFF3008003681B0A28BF41F0DD
:1001D0008001692902F0EE87642902F0EB87752916
:1001E00002F0E8876F2903F00383782903F0418345
:1001F000E92903F09D82E42903F09A82F52903F0AE
:100200009782EF2903F00083F82903F04083036805
:10021000DB0928BF41F08001632903F00C827329B8
:1002200003F01182E32903F09F85F32903F0A485ED
:10023000002070471FB503F0F5FD040000200021E9
:1002400004F0D8FA401C60600020002104F0BCFAE1
:10025000E0601FBD10B510BD03F0B6FD1146FFF7FD
:10026000E9FF00F009F803F08FFE03B4FFF7F2FF97
:1002700003BC01F06BF800000025032400270126D1
:1002800000F0FAFF00F0D0FA00F07AFF4FF41650B9
:1002900001F06AF84FF4165000F073FB4FF49650DB
:1002A00000F0F6FE01207F49086000F0CFFC7EA040
:1002B00000F0DDFB47F2305001F01BF8F1E00020C8
:1002C00000F086FF0746012F04D0022F07D0032F2E
:1002D0001CD109E078A002F037FF01261AE079A0CE
:1002E00002F032FF022615E07948006808B90120C3
:1002F00000E00020764908607648D0F8940108B9FB
:10030000012000E000207449086003E00A2000F0AA
:10031000F0FF00BF00BF042C06D170A000F0A7FBC7
:1003200043F6982000F0E5FF022C3BD1012E1BD1B3
:1003300000F08CFC70480068B0B144F6206000F01A
:10034000D8FF00F013FD00206B4908606B496CA0DA
:1003500002F0FAFE69496CA000F089FB42F21070CD
:1003600000F0C7FF00F072FC022E1BD100F06EFC03
:1003700061480068B0B144F6206000F0BAFF00F0B8
:10038000F5FC00205C4908605C495DA002F0DCFEE1
:100390005A4965A000F06BFB42F2107000F0A9FF13
:1003A00000F054FC032C06D167A000F060FB42F281
:1003B000107000F09EFF34B966A000F058FB47F2C1
:1003C000305000F096FF012C09D16BA000F04FFBDC
:1003D00047F2305000F08DFF6DA002F0B5FE6D4881
:1003E000008800F40040002843D06A4805780020C7
:1003F0006949485569A002F0A7FE294668A002F0A5
:10040000A3FE68A1644802F0D5FF00B105246AA1EB
:10041000614802F0CFFF00B100246AA15E4802F0FB
:10042000C9FF00B101246BA15B4802F0C3FF00B11A
:1004300004245CA1584802F0BDFF18B169A002F085
:1004400083FE02246AA1544802F0B4FF38B16AA0C6
:1004500000F00DFB47F2305000F04BFF03246AA17F
:100460004D4802F0A7FF08B100F035FC00204949D3
:10047000088020216B4801F038F920216A4801F0FA
:1004800032F94FF4967000F034FF2021654801F0F6
:100490002AF92021644801F028F94FF4967000F001
:1004A00028FF0CE75400002041542B43475041449F
:1004B00044523D310D0A00006B657930206F6B0DA1
:1004C0000A0000006B657931206F6B0D0A00000097
:1004D00094812142000023429401234241542B5134
:1004E0004D545355423D302C312C224C4A48434FF9
:1004F0004E31222C310D0A0024000020C5040020BA
:10050000313125730000000041542B514D5450559A
:10051000423D302C312C312C302C224C4A48312297
:100520002C222573220D0A0041542B514D54505555
:10053000423D302C312C312C302C224C4A48322276
:100540002C222573220D0A0041542B434741545459
:100550003F0D0A0041542B514D544F50454E3D30F4
:100560002C223135392E37352E37322E3232302289
:100570002C313838330D0A0041542B514D54434F20
:100580004E4E3D302C2242433236220D0A000000EE
:1005900032000000140000204801002025730000F4
:1005A000256400002B514D545355423A20302C31D4
:1005B0002C302C31000000002B43474154543A208A
:1005C000310000002B514D544F50454E3A20302CF5
:1005D000300000002B514D54434F4E4E3A20302CEA
:1005E000302C300062633236206F6B0D0A00000041
:1005F0004552524F5200000041542B514D54434C30
:100600004F53453D300D0A002B514D545245435632
:100610003A20302C302C224C4A48434F4E31222C69
:1006200022312200000C014000180140704700BF39
:10063000FEE700BFFEE700BFFEE700BFFEE7704732
:1006400070477047704700000CB500200190009083
:100650006C48006840F480306A49086000BF69480F
:10066000006800F4003000900198401C0190009850
:1006700018B90198B0F5A06FF1D16248006800F494
:10068000003010B10120009001E00020009000989F
:10069000012843D15C48006840F010005A490860C6
:1006A0000846006820F0030008600846006840F033
:1006B0000200086053484068524948600846406854
:1006C00048600846406840F48060486008464068DA
:1006D00020F47C1048600846406840F4E810486008
:1006E0000846006840F08070086000BF4548006818
:1006F00000F000700028F9D04248406820F0030064
:10070000404948600846406840F00200486000BF29
:100710003C48406800F00C000828F9D10CBD10B529
:10072000FFF792FF10BD10B53648006840F0010099
:1007300034490860084640683449084031494860F7
:1007400008460068324908402E490860084600689B
:1007500020F4802008600846406820F4FE004860CD
:100760004FF41F008860FFF7DAFF4FF0006029495F
:10077000086010BD10B5002100200022214B5B68ED
:1007800003F00C0121B1042906D0082928D107E083
:10079000214B224C236027E01F4B204C236023E099
:1007A000184B5B6803F47010164B5B6803F48032DF
:1007B000022303EB904022B9194B4343174C2360AB
:1007C0000DE0104B5B6803F4003323B1144B43433B
:1007D000124C236003E0104B4343104C236003E0B2
:1007E0000D4B0E4C236000BF00BF064B5B68C3F38C
:1007F00003130C4CE15C094B1B68CB40074C236096
:1008000010BD000000100240002002400000FFF870
:10081000FFFFF6FE08ED00E000127A000000002065
:1008200000093D000400002008B50121482001F026
:1008300069F92020ADF8000010208DF80300032096
:100840008DF802006946094800F0A0FE2021074803
:1008500000F049FF2020ADF800006946044800F090
:1008600095FE2021024800F03EFF08BD000C01402B
:100870000018014010B5044644B10021944802F02C
:10088000DBFA0121924802F043F803E0002190488E
:1008900002F03EF810BD10B540F225518D4801F030
:1008A00055FB00B38B4801F0D1FAC4B28A480088E6
:1008B000C82812DA0021864802F0BEFA864800886D
:1008C00010B90120FFF7D6FF834801880088401C3B
:1008D000814A10808148445405E07F48008840F4F4
:1008E00000407D49088010BD7FB505460C460121BA
:1008F000042001F014F9ADF80450ADF800400020D8
:10090000ADF80600ADF802006946714801F0A4FC9C
:10091000012211466E4802F016F81E208DF80C00D8
:1009200001208DF80D0002208DF80E0001208DF8B9
:100930000F0003A801F053FB7FBD70B58CB00646D5
:100940000C4615460121084601F0CFF8304602F06A
:10095000BDFA0194029510200390002004900590A8
:100960008020069000200790089009904FF4805056
:100970000A9000200B9001A9304602F049FB0CB010
:1009800070BD10B586B004460121042001F0BAF80C
:100990000121480401F0C3F84E4801F017F9042082
:1009A000ADF8100003208DF8120018208DF8130008
:1009B00004A94B4800F0EAFD0820ADF8100004201F
:1009C0008DF8130004A9464800F0E0FD00940020D3
:1009D000ADF80400ADF80600ADF80800ADF80C0065
:1009E0000C20ADF80A0069463A4801F032F90122BC
:1009F0008021384801F0EAF93A4A3649091D3A4857
:100A0000FFF79BFF0121334801F0AFF9012240F2CB
:100A10002551304801F0B5F926208DF81400022048
:100A20008DF8150003208DF8160001208DF81700B1
:100A300005A801F0D4FA41F61F416320FFF754FFE7
:100A4000002025490880FFF715FF06B010BD70B5DE
:100A500004460D460021204602F005FB29462046AB
:100A600002F016FB0121204602F0FDFA70BD0FB422
:100A700038B505A800901B48009A049902F052FB73
:100A80000020009000BF184802F004FB0028FAD1B3
:100A9000144802F0A1FCC4B221461348FFF7D7FF67
:100AA00038BC5DF814FB10B50121094802F0F9F9D2
:100AB00060B10948008840F40040074908800121DE
:100AC000034802F0FFF90020FFF7D4FE10BD00003C
:100AD00000080040004400401400002048010020AD
:100AE0000008014080000020800002402DE9F0470E
:100AF0008AB081460C4692462822FEA1684602F042
:100B000096FC0026BAF10A0F09D1B9F1000F06DAF6
:100B1000C9F100072D223046761C225400E04F46D2
:100B200000BFB7FBFAF00AFB10701DF8002030463A
:100B3000761C2254B7FBFAF7002FF2D10020A05503
:100B400020782D2802D14FF0010801E04FF0000875
:100B500045460EE0605DF1490870701E4044401B40
:100B6000205C605508460178701E4044401B2154AB
:100B70006D1C701E00EBD071B5EB610FEADD2046F5
:100B80000AB0BDE8F08710B540F22551E44801F005
:100B9000DDF9B0B140F22551E14801F001FAE04839
:100BA00001F054F9C4B2DF480088B0F5967F08DA46
:100BB000DD48DC4909884454DA480088401CD9499A
:100BC000088040F22441D64801F0C0F9012807D03E
:100BD0000120D649086040F22441D14801F0E0F9F3
:100BE000CF480088CE48001D008810BD10B50246D1
:100BF000514000230BE001F001044908C1F30E014C
:100C000014B14AF20100414089B2581CC3B2082B0A
:100C1000F1DB084610BD2DE9F04305460E464FF6C0
:100C2000FF744FF0000907E028782146FFF7DEFF48
:100C300004466D1C09F10109B145F5D3E7B2C4F3CF
:100C4000072848EA07242046BDE8F08308B5B848DD
:100C5000006801281AD10020B5490860B54800781D
:100C6000B549087003204870002088704820C8707B
:100C700000200871082048710621AF48FFF7CBFF1C
:100C80000090C420AC4988711A20C8710020AB497B
:100C9000086019E000BF4021A14801F041F9002897
:100CA000F9D0A548A54A1268815C9D4801F0CAF8B0
:100CB00000BF4021A24801F033F90028F9D09F4835
:100CC0000068401C9D4908609C4800689D4909686F
:100CD0008842DFDB08BD08B50020954908609548CB
:100CE00000789949087010204870002088704B20C7
:100CF000C87000200871022048710420887100200B
:100D0000C8710872487288720B218F48FFF783FF01
:100D10000090B6208C49C8722C20087300208749A7
:100D2000086019E000BF40217D4801F0F9F8002873
:100D3000F9D08548814A1268815C794801F082F8CF
:100D400000BF40217E4801F0EBF80028F9D07B4835
:100D50000068401C7949086078480068794909684A
:100D60008842DFDB79A002F0EFF908BDF8B57AA080
:100D700002F0EAF96D48006801287DD169480088D1
:100D80007749086000206949086076A002F0DCF924
:100D900065480078012803D0634800780028ECD12A
:100DA00072A002F0D1F96E480078801EC1B25E4890
:100DB000FFF731FF00906FA002F0C6F95948018893
:100DC0006EA002F0C1F95848C0780006564909796A
:100DD00040EA01405449497940EA01205249897961
:100DE0000843684908600846016867A002F0ACF94A
:100DF00069486AA1098801800A2269496148006836
:100E0000FFF774FE6649644802F005FB4648C07966
:100E100000064549097A40EA01404349497A40EAD7
:100E200001204149897A08435E4908600846016803
:100E30005DA002F089F959A1574802F0ECFA0A22A4
:100E4000574958480068FFF751FE5549524802F08B
:100E5000E2FA3548C07A00063349097B40EA01408E
:100E60003149497B40EA01202F49897B0843514998
:100E700008600846016800E0F6E04FA002F064F95F
:100E800046A1454802F0C7FA0A2245494948006888
:100E9000FFF72CFE4249404802F0BDFA2248C07BD1
:100EA00000062149097C40EA01401F49497C40EA8B
:100EB00001201D49897C08434249086008460168B1
:100EC00041A002F041F935A1334802F0A4FA0A2208
:100ED00033493C480068FFF709FE31492E4802F0CB
:100EE0009AFA1148C07C00060F49097D40EA01408A
:100EF0000D496FE0303132333435363738394142BD
:100F0000434445464748494A4B4C4D4E4F50515239
:100F1000535455565758595A000000005E0000209F
:100F2000004800405C0000207504002024000020E0
:100F30005400002018000020190000204800002064
:100F4000003801404400002068040020726561649C
:100F500031206F6B0000000030310D0A00000000EE
:100F60005800002030320D0A0000000030330D0A16
:100F70000000000030340D0A000000000D0A256456
:100F80000D0A0000280000200D0AB5E7D1B9D6B53A
:100F90003A25640D0A000000C5040020610000002D
:100FA000150500202C000020B5E7C1F73A256C7527
:100FB0000D0A000030000020B9A6C2CA3A256C759F
:100FC0000D0A000034000020B5E7C4DC3A256C753A
:100FD0000D0A0000497D40EA01205B49897D0843F4
:100FE0005A4908600846006803F04BFC0646584A18
:100FF000584B03F05DFC044603F012FC56490860B0
:101000005148C07D00065049097E40EA01404E49E2
:10101000497E40EA01204C49897E08434F490860D7
:101020004948C07F0006484991F8201040EA014035
:10103000454991F8211040EA0120434991F82210D6
:101040000843474908600846006803F01AFC064652
:10105000444A454B03F02CFC044603F0E1FB4349B2
:101060000860002042490880F8BD0020414908601E
:1010700009E0002034493F4A126888543D4800681E
:10108000401C3C4908603B4800682528F1DB70475C
:1010900010B586B004460121082000F033FD01217F
:1010A000880400F03CFD344800F090FD4FF480606F
:1010B000ADF8100003208DF8120018208DF81300F1
:1010C00004A92E4800F062FA4FF40060ADF8100059
:1010D00004208DF8130004A9284800F057FA009462
:1010E0000020ADF80400ADF80600ADF80800ADF83A
:1010F0000C000C20ADF80A0069461F4800F0A9FD5D
:1011000027208DF8140000208DF8150002208DF89E
:10111000160001208DF8170005A800F060FFFFF70A
:10112000A4FF012240F22551134800F02AFE0122BB
:1011300040F22441104800F024FE01210E4800F046
:1011400014FE06B010BD7047750400203800002062
:10115000FCA9F1D24D62503F4C0000203C00002021
:10116000400000207B14AE47E17A843F500000200D
:101170005C0000204400002000480040000C0140BA
:1011800008B50121442000F0BDFC0121364800F0E3
:10119000CEFA0820ADF8000048208DF8030069461B
:1011A000324800F0F3F91020ADF8000048208DF827
:1011B000030069462D4800F0E9F90120ADF8000070
:1011C00028208DF803006946294800F0DFF908BDA2
:1011D00010B5044614B1012026490870254800784E
:1011E00058B31021214800F064FA50B108211F487B
:1011F00000F05FFA28B101211D4800F05AFA0128D9
:101200001BD10A2000F075F800201A49087010213F
:10121000164800F04EFA08B9012010BD0821134805
:1012200000F047FA08B90220F7E70121104800F062
:1012300040FA012815D10320EFE710210B4800F0F8
:1012400038FA01280DD10821084800F032FA0128A7
:1012500007D10121064800F02CFA10B901200549F8
:1012600008700020D9E7000000023000001801409B
:10127000000801405F00002010B56FF0040000F08E
:10128000F8FE2E4800682E49B0FBF1F02D49087099
:101290000846007800EB4001C1EBC0104FF6FF712B
:1012A00001EAC0002849088010BD0146254A12788D
:1012B0004A434FF0E0235A6100229A611A461269AC
:1012C00042F001021A6100BF4FF0E022106900F005
:1012D00001021AB100F48032002AF5D04FF0E0226A
:1012E000126922F001024FF0E0231A6100229A6194
:1012F00070470146144A12884A434FF0E0235A616E
:1013000000229A611A46126942F001021A6100BF76
:101310004FF0E022106900F001021AB100F48032AF
:10132000002AF5D04FF0E022126922F001024FF0BE
:10133000E0231A6100229A6170470000000000203B
:1013400000127A00600000206200002000BF704799
:1013500000BF4A4A128802F04002002AF9D0C2B205
:10136000464B1B1D1A80704710B586B004460121FC
:1013700044F2040000F0C6FB4FF40070ADF8140016
:1013800003208DF8160018208DF8170005A93C4899
:1013900000F0FCF84FF48060ADF8140004208DF8E4
:1013A000170005A9364800F0F1F825208DF8000057
:1013B00003208DF801008DF8020001208DF8030054
:1013C000684600F00CFE01940020ADF80800ADF86E
:1013D0000A00ADF80C00ADF810000C20ADF80E00BE
:1013E00001A9264800F035FC012240F2255123488E
:1013F00000F0C7FC0121214800F0B7FC06B010BD89
:1014000010B540F225511D4800F0A0FD10B31B4857
:1014100000F01CFDC4B21B48008800F40040C8B9AD
:101420001848008800F4804060B10A2C03D00020E6
:101430001449088020E01348008840F40040114916
:10144000088019E00D2C06D10E48008840F4804039
:101450000C49088010E00B480088C0F30D000A49D1
:101460000C5408480088401C06490880084600883B
:10147000C72801DD0020088010BD000000380140B1
:101480000008014068000020250500200948804729
:1014900009480047FEE7FEE7FEE7FEE7FEE7FEE756
:1014A000FEE7FEE7FEE7FEE704480549054A064B6E
:1014B000704700002707000831010008500600208F
:1014C000500C0020500800205008002010B50446A1
:1014D000CC48844208D10121042000F02DFB0021DA
:1014E000042000F029FB46E0C748844208D10121CE
:1014F000082000F021FB0021082000F01DFB3AE04D
:10150000C248844208D10121102000F015FB0021BF
:10151000102000F011FB2EE0BD48844208D10121CB
:10152000202000F009FB0021202000F005FB22E034
:10153000B848844208D10121402000F0FDFA002182
:10154000402000F0F9FA16E0B348844208D10121A6
:10155000802000F0F1FA0021802000F0EDFA0AE08E
:10156000AE48844207D10121801500F0E5FA002140
:10157000A01500F0E1FA10BD10B50121084600F0F9
:10158000DBFA0021012000F0D7FA10BD2DE9F0416F
:10159000024600250026002000230024002791F8A1
:1015A00003C00CF00F0591F803C00CF0100CBCF157
:1015B000000F03D091F802C04CEA050591F800C075
:1015C000BCF1000F31D0146800202BE04FF0010C6B
:1015D0000CFA00F3B1F800C00CEA03069E4220D1D9
:1015E00083004FF00F0C0CFA03F7BC4305FA03FC21
:1015F0004CEA040491F803C0BCF1280F06D14FF067
:10160000010C0CFA00FCC2F814C00AE091F803C007
:10161000BCF1480F05D14FF0010C0CFA00FCC2F8E8
:1016200010C0401C0828D1D31460B1F800C0BCF130
:10163000FF0F34DD546800202EE000F1080C4FF05D
:10164000010808FA0CF3B1F800C00CEA03069E4248
:1016500021D183004FF00F0C0CFA03F7BC4305FABD
:1016600003FC4CEA040491F803C0BCF1280F05D137
:1016700000F1080C08FA0CF8C2F8148091F803C0C5
:10168000BCF1480F07D100F1080C4FF0010808FA2F
:101690000CF8C2F81080401C0828CED35460BDE876
:1016A000F0814FF6FF710180022181700421C17029
:1016B00070470246002093680B400BB1012000E008
:1016C000002070470146886880B2704702460020BB
:1016D000D3680B400BB1012000E0002070470146A9
:1016E000C86880B2704701617047416170470AB1B4
:1016F000016100E041617047C16070474FF4803282
:101700000A4382618161826182698269704702460F
:101710000020434B18684FF68073184040EA0210CF
:1017200008433F4B186070473E49C8617047F0B5A9
:101730000A46002300240021002500F00046B6F1EF
:10174000004F02D1364EF16901E0354E7168C0F3A9
:10175000034583B200F44016B6F5401F08D121F0CE
:1017600070612F4E766826F070662D4F7E6012E015
:1017700000F48016B6F5801F06D1032606FA05F49C
:10178000A14341F0706106E0460D360103FA06F60A
:10179000B14341F0706122B1460D360103FA06F6FD
:1017A000314300F00046B6F1004F02D11C4EF1610A
:1017B00001E01B4E7160F0BD30B500228B071C0F9D
:1017C0000F2303FA04F2164B08338C1053F824301D
:1017D0009343134C08348D1044F8253023468C1065
:1017E00053F824308C07240F00FA04F423430C4CE4
:1017F00008348D1044F8253030BD0A49DC310860CA
:101800007047000000080140000C0140001001403A
:101810000014014000180140001C0140002001405C
:101820000000014000002042DF48006840F0010055
:10183000DD49086008464068DC490840DA494860EC
:1018400008460068DA490840D74908600846006839
:1018500020F4802008600846406820F4FE004860BC
:101860004FF41F0088607047CF49096821F4803128
:10187000CD4A11601146096821F480211160B0F54C
:10188000803F03D0B0F5802F0ED106E0C64909682D
:1018900041F48031C44A116007E0C349096841F44A
:1018A000A021C14A116000E000BF00BF704710B521
:1018B00001460022002300204A11012A02D1BA4C1D
:1018C000236806E0022A02D1B74C236A01E0B64C35
:1018D000636A01F01F02012494401C400CB10120F6
:1018E00000E0002010BD38B5002000900024002545
:1018F00000BF3120FFF7DBFF05460098401C009039
:101900000098B0F5A06F01D0002DF2D03120FFF784
:10191000CEFF08B1012400E00024204638BD014676
:101920000020A14A106820F0F80040EAC1001060D1
:101930007047A04908607047024600209A4B5868DB
:1019400020F47C1042EA01031843974B586070471B
:1019500098490866704701460020934A506820F075
:1019600003000843506070478F48406800F00C0047
:101970007047014600208C4A506820F0F000084370
:101980005060704701460020874A506820F4E060AC
:1019900008435060704701460020834A506820F495
:1019A000605040EAC1005060704729B17E4A527AC7
:1019B00002437D4B5A7204E07B4A527A82437A4B4F
:1019C0005A7270477B49D831086070470146002041
:1019D000754A506820F44040084350607047002129
:1019E000714A20321170704A82F82010012802D00A
:1019F00004280AD104E001216B4A2032117005E06D
:101A00000521694A2032117000E000BF00BF704715
:101A10006949086070476449096A0143624A116272
:101A20007047654944390860704730B5002100228D
:101A3000002400235C4D6D6805F00C0121B10429E0
:101A400005D0082923D105E05C4D056022E05B4DFF
:101A500005601FE0544D6D6805F47012524D6D68BD
:101A600005F48034022505EB92421CB9544D5543D0
:101A700005600BE04C4D6D6805F400351DB1504D0F
:101A80005543056002E04D4D5543056002E04B4D66
:101A9000056000BF00BF444D6D6805F0F001090905
:101AA000484D6B5C0568DD4045603F4D6D6805F451
:101AB000E061090A434D6B5C4568DD4085603A4D45
:101AC0006D6805F46051C90A3E4D6B5C4568DD40A8
:101AD000C560354D6D6805F44041890B3A4D6B5C2E
:101AE000C568B5FBF3F5056130BD29B12E4A5269D1
:101AF00002432D4B5A6104E02B4A526982432A4B20
:101B00005A61704729B1284A92690243264B9A616B
:101B100004E0254A92698243234B9A61704729B1B8
:101B2000214AD2690243204BDA6104E01E4AD2699D
:101B300082431D4BDA61704729B11B4AD2680243C8
:101B4000194BDA6004E0184AD2688243164BDA6017
:101B5000704729B1144A12690243134B1A6104E019
:101B6000114A12698243104B1A6170471249403979
:101B7000086070470F49C86470470B49C8717047C7
:101B80000948406A40F08070074948627047014642
:101B90000020054A92680A400AB1012000E00020B6
:101BA0007047014988727047001002400000FFF83A
:101BB000FFFFF6FE000042428004424200127A001B
:101BC00000093D006A0000207A00002010B504469C
:101BD000FB48844209D101218803FFF7ADFF0021B2
:101BE0004FF48040FFF7A8FF32E0F648844209D165
:101BF00001214804FFF7ADFF00214FF40030FFF74B
:101C0000A8FF25E0F048844209D101218804FFF7AC
:101C1000A0FF00214FF48020FFF79BFF18E0EB4866
:101C2000844209D10121C804FFF793FF00214FF43A
:101C30000020FFF78EFF0BE0E548844208D1012128
:101C40000805FFF786FF00214FF48010FFF781FFA2
:101C500010BD2DE9F04786B005460E460024A24689
:101C600000BFA1460027B08900B100BF2F462C8AD3
:101C70004CF6FF700440F08804432C82AC894EF689
:101C8000F3100440B0883189084371890843044344
:101C9000AC81AC8A4FF6FF400440B0890443AC826B
:101CA00001A8FFF7C2FEC648874202D1DDF810A0A6
:101CB00001E0DDF80CA0A88900F4004040B10AEB77
:101CC000CA0000EB0A1031684900B0FBF1F807E0E8
:101CD0000AEBCA0000EB0A1031688900B0FBF1F88A
:101CE0006420B8FBF0F004012009642101FB108995
:101CF000A88900F4004040B1322000EBC900B0FBDD
:101D0000F1F000F00700044308E0322000EB091076
:101D10006421B0FBF1F000F00F0004432C8106B009
:101D2000BDE8F0874FF41651016000218180C18029
:101D300001810C21418100218181704710B502464B
:101D40000020108A4FF2FF0318400B884C88234371
:101D50008C882343CC8823431843108210BD002174
:101D6000018041808180C180704721B1828942F425
:101D70000052828104E082894DF6FF731A4082810D
:101D80007047F0B50346002400260025002040F6E9
:101D90006A17B94200D100BF1846C1F3421401F0DE
:101DA0001F06012707FA06F5012C01D10C3004E0CB
:101DB000022C01D1103000E014301AB107682F4313
:101DC000076002E00768AF430760F0BD1AB1838A7D
:101DD0000B43838202E0838A8B4383827047028AAB
:101DE0004FF6F0731A400282028A0A430282704759
:101DF00082894FF2FF731A40828182890A4382816D
:101E0000704721B1828942F00202828104E0828916
:101E10004FF6FD731A4082817047028A4FF6DF73D6
:101E20001A400282028A0A430282704721B1028A62
:101E300042F48042028204E0028A4BF6FF731A40A9
:101E400002827047C1F30802828070470146888889
:101E5000C0F308007047818941F00101818170471A
:101E6000028BD2B20283028B42EA012202837047C4
:101E7000028B02F47F420283028B0A430283704783
:101E800021B1828A42F02002828204E0828A4FF6E7
:101E9000DF731A408282704721B1828A42F01002B9
:101EA000828204E0828A4FF6EF731A408282704782
:101EB00021B1828A42F00802828204E0828A4FF6CF
:101EC000F7731A408282704721B1828942F400423E
:101ED000828103E08289C2F30E028281704721B1C0
:101EE000828A42F40062828204E0828A4FF2FF73A7
:101EF0001A4082827047828A4FF6FB731A408282B0
:101F0000828A0A438282704721B1828A42F00202A9
:101F1000828204E0828A4FF6FD731A408282704703
:101F200002460020B1F5007F00D100BF13880B40AE
:101F30000BB1012000E00020704701F40072B2F5FF
:101F4000007F00D100BFCA430280704770B50246CF
:101F5000002400230025002040F66A16B14200D17B
:101F600000BFC1F3421501F01F03012606FA03F377
:101F7000012D02D19689334006E0022D02D1168A46
:101F8000334001E0968A33400C12012606FA04F42D
:101F90001688344013B10CB1012000E0002070BD60
:101FA00010B50022002340F66A14A14200D100BF00
:101FB0000A1201249440A3B2DC43048010BD000047
:101FC000003801400044004000480040004C004000
:101FD0000050004031490143314A1160704770B5EB
:101FE000002100230F22C47804B32D4C246804F48C
:101FF000E064C4F5E064210AC1F10403CA404478F6
:1020000004FA03F18478144021430901254C067831
:10201000A155047804F01F050124AC4005786D112A
:10202000AD0005F1E025C5F8004109E0047804F0B1
:102030001F050124AC401C4D0678761145F826405A
:1020400070BD1A4A0A400243154B1B1F1A607047A5
:1020500039B1134A121D12680243114B1B1D1A603D
:1020600006E00F4A121D126882430D4B1B1D1A60B9
:102070007047042808D14FF0E021096941F00401BC
:102080004FF0E022116107E04FF0E021096921F0F3
:1020900004014FF0E0221161704700000000FA05D2
:1020A0000CED00E000E400E080E100E080FFFF1FB5
:1020B00010B50446FE48844208D10121C014FFF740
:1020C0003BFD0021E014FFF737FDC4E0B4F1804F81
:1020D00008D101210846FFF73CFD00210120FFF750
:1020E00038FDB8E0F348844208D101210220FFF70F
:1020F00030FD00210220FFF72CFDACE0EE488442C9
:1021000008D101210420FFF724FD00210420FFF75E
:1021100020FDA0E0E948844208D101210820FFF712
:1021200018FD00210820FFF714FD94E0E4488442E4
:1021300008D101211020FFF70CFD00211020FFF72E
:1021400008FD88E0DF48844208D101212020FFF704
:1021500000FD00212020FFF7FCFC7CE0DA488442EF
:1021600008D101214014FFF7E7FC00216014FFF7BC
:10217000E3FC70E0D548844209D10121C804FFF78F
:10218000DBFC00214FF40020FFF7D6FC63E0D048D1
:10219000844209D101210805FFF7CEFC00214FF44C
:1021A0008010FFF7C9FC56E0CA48844209D10121DA
:1021B0004805FFF7C1FC00214FF40010FFF7BCFCFD
:1021C00049E0C548844208D101214020FFF7C1FC05
:1021D00000214020FFF7BDFC3DE0C048844208D10B
:1021E00001218020FFF7B5FC00218020FFF7B1FC22
:1021F00031E0BB48844208D101218015FFF7A9FCDA
:102200000021A015FFF7A5FC25E0B648844209D1BE
:1022100001210804FFF790FC00214FF48030FFF704
:102220008BFC18E0B048844209D101214804FFF733
:1022300083FC00214FF40030FFF77EFC0BE0AB483D
:10224000844208D101218804FFF776FC00214FF475
:102250008020FFF771FC10BD00220288944B984249
:102260000ED0994B98420BD0B0F1804F08D0914BD3
:10227000984205D0904B984202D0904B984204D19E
:102280004FF68F731A404B881A438D4B984207D0F4
:102290008C4B984204D04FF6FF431A40CB881A4328
:1022A00002808B8883850B880385814B98420BD0F5
:1022B000854B984208D08B4B984205D08A4B984268
:1022C00002D08A4B984201D10B7A03860123838284
:1022D000704770B5002400220023058C4FF6FE766F
:1022E00035400584028C8388048B4FF68F752C4013
:1022F000B51E2C400D882C43751E2A400D892A439B
:102300004D882A436A4DA8420BD06F4DA84208D091
:10231000744DA84205D0744DA84202D0734DA84216
:1023200013D14FF6F7752A404D892A434FF6FB75B6
:102330002A408D882A434FF6FF652B404FF6FF5504
:102340002B408D892B43CD892B4383800483CD88FB
:102350008586028470BD70B5002400220023058CA0
:102360004FF6EF7635400584028C8388048B48F65F
:10237000FF752C404FF6FF452C400D884FF6FF7639
:1023800006EA05252C434FF6DF752A400D8906EA3B
:1023900005152A434D8806EA05152A43444DA842EF
:1023A00002D0494DA8421DD14FF67F752A404D8974
:1023B0004FF6FF7606EA05152A434FF6BF752A4009
:1023C0008D8806EA05152A434FF6FF352B404FF25C
:1023D000FF752B408D8906EA85052B43CD8906EADA
:1023E00085052B4383800483CD880587028470BDD7
:1023F00070B5002400220023058C4FF6FF6635409F
:102400000584028C8388848B4FF68F752C404FF6A1
:10241000FC752C400D882C434FF6FF552A400D8942
:102420004FF6FF7606EA05252A434D8806EA05257C
:102430002A431F4DA84202D0234DA8421DD14FF27E
:10244000FF752A404D894FF6FF7606EA05252A4397
:102450004FF6FF352A408D8806EA05252A434EF6B9
:10246000FF752B404DF6FF752B408D8906EA05154B
:102470002B43CD8906EA05152B4383808483CD88C1
:102480008587028470BD70B5002200230024058C6E
:102490004EF6FF7635400584038C8488828B48F69F
:1024A000FF752A404FF6FF452A400D8820E00000C6
:1024B000002C01400004004000080040000C0040D7
:1024C000001000400014004000340140004C014066
:1024D000005001400054014000180040001C004022
:1024E00000200040004001400044014000480140FD
:1024F0004FF6FF7606EA05252A434DF6FF752B4079
:102500000D8906EA05352B434D8806EA05352B4330
:10251000FA4DA84202D0FA4DA84208D14BF6FF75F9
:102520002C408D894FF6FF7606EA85152C43848072
:102530008283CD88A0F84050038470BD828B4FF217
:10254000FF331A408283828B4FF6FF7303EA012325
:102550001A4382837047F0B50C46154600220021CD
:102560000026078C4EF6FF7C07EA0C070784828B57
:10257000018C4FF6FF7707EA043640F6FF473A40F2
:102580004FF6FF7707EA05273A434FF6FF7707EA4A
:1025900003373A43D94FB8420ED0D94FB8420BD087
:1025A000B0F1804F08D0D74FB84205D0D64FB842CF
:1025B00002D0D64FB84206D14DF6FF77394046F4E7
:1025C0008057394305E047F6FF57394044F48057B8
:1025D000394382830184F0BD828B4FF6F3731A4036
:1025E0008283828B0A4382837047F0B50C4615467E
:1025F000002200210026078C4FF6FF6C07EA0C072B
:102600000784828B018C4FF6FF7707EA04264FF68A
:102610000C773A404FF6FF7707EA03172F433A4308
:10262000B64FB8420ED0B64FB8420BD0B0F1804F83
:1026300008D0B44FB84205D0B34FB84202D0B34F20
:10264000B84206D14FF6FF57394046F480773943F8
:1026500005E04FF2FF57394044F4807739438283D5
:102660000184F0BD028B4FF2FF331A400283028BCC
:102670004FF6FF7303EA01231A4302837047F0B554
:102680000C461546002200210026078C4FF6EF7CF1
:1026900007EA0C070784028B018C4FF6FF7707EAE5
:1026A000041640F6FF473A404FF6FF7707EA033734
:1026B0003A434FF6FF7707EA05273A438F4FB84270
:1026C0000ED08F4FB8420BD0B0F1804F08D08D4F55
:1026D000B84205D08C4FB84202D08C4FB84206D1D8
:1026E0004FF6DF77394046F01007394305E04FF6E3
:1026F0005F77394044F01007394302830184F0BD0D
:10270000028B4FF6F3731A400283028B0A43028353
:102710007047F0B50C46154600220021068C4FF696
:10272000FE773E400684028B018C4FF60C763240D9
:102730007E1C06EA03162E433243704EB0420ED082
:102740006F4EB0420BD0B0F1804F08D06D4EB0420A
:1027500005D06D4EB04202D06C4EB04206D14FF65D
:10276000FD76314044F00106314305E04FF6F57641
:10277000314044F00106314302830184F0BD70B55D
:1027800005460C465D4885420ED05D4885420BD01B
:10279000B5F1804F08D05B48854205D05A48854244
:1027A00002D05A48854200D100E000BF208850B9CD
:1027B0002389A28861882846FFF7ABFFE188284675
:1027C000FFF79EFF25E0208804280AD12389A288EC
:1027D00061882846FFF753FFE1882846FFF742FF4C
:1027E00017E0208808280AD12389A2886188284612
:1027F000FFF7FBFEE1882846FFF7EEFE09E023899C
:10280000A28861882846FFF7A6FEE1882846FFF7E0
:1028100095FE70BD2DE9F04105460C4600260127C6
:10282000608808B9022600E00026A088012801D1AE
:10283000022700E001272088A0B92389A2886188A7
:102840002846FFF766FFE1882846FFF759FF2389EE
:102850003A4631462846FFF712FFE1882846FFF73F
:1028600001FF13E02389A28861882846FFF707FF4C
:10287000E1882846FFF7F6FE23893A463146284686
:10288000FFF747FFE1882846FFF73AFFBDE8F081F0
:102890000A884B881A438B881A43CB881A430B89C2
:1028A0001A434B891A438B891A43A0F84420704776
:1028B0004FF6FF71818000210180C180418001724B
:1028C00070470021018041808180C1800181418168
:1028D0008181C18170470021018041800121818077
:1028E0000021C180018170470021018041808180E9
:1028F000C18001814181818170470000002C01402D
:10290000003401400004004000080040000C00407A
:1029100021B1028842F00102028004E002884FF6F1
:10292000FE731A400280704731B1B0F8442042F47F
:102930000042A0F8442005E0B0F84420C2F30E02A3
:10294000A0F8442070471AB183890B43838102E0C9
:1029500083898B43838170478182704741EA0203F8
:10296000A0F8483070471AB183890B43838102E095
:1029700083898B438381704701894FF6F872114038
:10298000018170470A46002101894FF68F73194073
:1029900011430181704730B504460D462946204653
:1029A000FFF7F0FF208940F00700208130BD2DE9BE
:1029B000F04104460D4616461F46602D06D13B46A3
:1029C000012231462046FFF75AFE05E03B46012230
:1029D00031462046FFF79DFE29462046FFF7D2FFED
:1029E000208940F007002081BDE8F08130B50C4619
:1029F00000210189C9B24FF6FF7505EA0325154389
:102A000025432943018130BD2DE9F04105460E469D
:102A100017469846002443463A4631462846FFF773
:102A2000E5FF2C894FF6F870044044F007044FF698
:102A30008F70044044F070042C81BDE8F081F0B543
:102A400004460D4616461F463B463246294620465A
:102A5000FFF7CCFF208940F480402081F0BD018544
:102A6000828270470A46002101884FF68F73194011
:102A7000114301807047F0B50C4615461E460021F3
:102A8000002200230189028B038C4FF6F87739402E
:102A900021434FF6FC473A4040F201173A434FF6C4
:102AA000DD773B404FF6FF7707EA06172F433B439E
:102AB000018102830384F0BD0A460021018B4FF699
:102AC0008F7319401143018370470A460021018B1F
:102AD00048F6FF7319404FF6FF7303EA02231943C8
:102AE000018370470A460021818B4FF68F7319408E
:102AF0001143818370470A460021818B48F6FF739A
:102B000019404FF6FF7303EA02231943818370478C
:102B100021B1028842F08002028004E002884FF670
:102B20007F731A400280704721B1828842F004020C
:102B3000828004E082884FF6FB731A4082807047DF
:102B400021B1828842F00802828004E082884FF638
:102B5000F7731A408280704721B1828842F00102E7
:102B6000828004E082884FF6FE731A4082807047AC
:102B70000A460021018B4FF6F77319401143018378
:102B800070470A460021018B4FF2FF7319404FF640
:102B9000FF7303EA02231943018370470A460021A9
:102BA000818B4FF6F77319401143818370470A46B2
:102BB0000021818B4FF2FF7319404FF6FF7303EA38
:102BC00002231943818370470A460021018B4FF687
:102BD000FB7319401143018370470A460021018BA2
:102BE0004FF6FF3319404FF6FF7303EA02231943F0
:102BF000018370470A460021818B4FF6FB73194011
:102C00001143818370470A460021818B4FF6FF33C1
:102C100019404FF6FF7303EA02231943818370477B
:102C20000A460021018B4FF67F731940114301833F
:102C300070470A460021018BC1F30E014FF6FF7366
:102C400003EA02231943018370470A460021818B5E
:102C50004FF67F7319401143818370470A46002164
:102C6000818BC1F30E014FF6FF7303EA0223194370
:102C7000818370470A460021018C4FF6FD7319408D
:102C80001143018470470A460021018C4FF6F77307
:102C900019401143018470470A460021018C4FF608
:102CA000DF7319404FF6FF7303EA021319430184DF
:102CB00070470A460021018C4FF67F7319404FF68A
:102CC000FF7303EA02131943018470470A46002187
:102CD000018C4FF6FF5319404FF6FF7303EA0223AE
:102CE0001943018470470A460021018C4FF2FF739B
:102CF00019404FF6FF7303EA02231943018470471A
:102D00000A460021018C4DF6FF7319404FF6FF7300
:102D100003EA023319430184704730B500230124CC
:102D20008C40A3B2048C9C430484048C02FA01F509
:102D3000ADB22C43048430BD30B5002304248C4054
:102D4000A3B2048C9C430484048C02FA01F5ADB256
:102D50002C43048430BD70B503460020002418467F
:102D6000183001258D40ACB21D8CA5431D8409B1DE
:102D7000082909D100EB6100056825F070050560A0
:102D80000568154305600EE00D1FC5F34E05284488
:102D9000056825F4E045056005684FF6FF7606EA0C
:102DA00002263543056070BD21B1028842F002025F
:102DB000028004E002884FF6FD731A4002807047DB
:102DC00021B1028842F00402028004E002884FF63A
:102DD000FB731A400280704721B1828842F0800262
:102DE000828004E082884FF67F731A4082807047A9
:102DF00002884FF6F7731A40028002880A43028065
:102E0000704782884FF68F731A40828082880A4307
:102E10008280704702894FF6F8731A400281028956
:102E20000A430281704702894FF67F731A4002817C
:102E300002890A4302817047818470478185704707
:102E4000818670470187704781877047A0F84010DE
:102E5000704702884FF6FF431A40028002880A43F7
:102E6000028070470146888E70470146088F704780
:102E70000146888F70470146B1F84000704701460F
:102E8000888C70470146088D704702460020138ADF
:102E90000B400BB1012000E000207047CA430282C2
:102EA000704730B50246002000230024158A05EA49
:102EB0000103958905EA010413B10CB1012000E07A
:102EC000002030BDCA4302827047000001684FF6FF
:102ED000FE72114001600021016041608160C160AB
:102EE0008D49884208D18C490839496841F00F0161
:102EF000894A083A51608AE087491431884208D1EA
:102F000085490839496841F0F001834A083A51601F
:102F10007DE081492831884208D17F4908394968D4
:102F200041F470617C4A083A516070E07A493C3162
:102F3000884208D178490839496841F47041764A95
:102F4000083A516063E074495031884208D17249AF
:102F50000839496841F470216F4A083A516056E0D7
:102F60006D496431884208D16B490839496841F498
:102F70007001694A083A516049E0674978318842EE
:102F800008D165490839496841F07061624A083AD8
:102F900051603CE06149884206D1011F096841F057
:102FA0000F01021F116032E05C491431884208D1E0
:102FB0005A49091F096841F0F001584A121F11606F
:102FC00025E056492831884208D15449091F09682B
:102FD00041F47061514A121F116018E04F493C31B1
:102FE000884208D14D49091F096841F470414B4A94
:102FF000121F11600BE049495031884207D14749FF
:10300000091F096841F47021444A121F116070477A
:1030100010B50022026847F6F0739A430C6A8B6879
:1030200023430C6923434C6923438C692343CC69B4
:1030300023434C6A23438C6A23431A430260CB68C0
:1030400043600B6883604B68C36010BD0021016062
:1030500041608160C160016141618161C161016262
:1030600041628162704721B1026842F00102026050
:1030700004E002684FF6FE731A40026070471AB10E
:1030800003680B43036002E003688B4303607047EF
:10309000416070470146486880B270470146002091
:1030A000002201F080531BB11C4B083B1A6802E060
:1030B000194B083B1A6802EA01030BB1012000E03A
:1030C0000020704700F0805119B11449091F0860B1
:1030D00002E011490839486070470146002000228B
:1030E00001F080531BB10D4B083B1A6802E00A4BFC
:1030F000083B1A6802EA01030BB1012000E000203E
:10310000704700F0805119B10449091F086002E0BE
:10311000014908394860704708000240080402402D
:10312000704700001CB50C46064B7B446946009076
:10313000204600F05EFA04460020694600F06CFA72
:1031400020461CBDEB0400000FB4044910B503AACF
:10315000029800F07DFA10BC5DF814FB64000020BA
:1031600070B50C460546012A05D02878800600D5A2
:10317000EA69002302E0012305E05B1C934202D2CE
:10318000E05C0028F9D1A869E618C01AA861286A8D
:1031900018442862284600F080F904E0D5E90121AE
:1031A00014F8010B9047B442F8D3284600F08BF98D
:1031B00070BD00002DE9F041064600241068752915
:1031C000314616A510D000F08FF9002802DA4042EF
:1031D00013A507E031688A0701D512A502E0490767
:1031E00004D511A5012401E000F087F900210A228D
:1031F00006F1240709E0B0FBF2FCB0FBF2F302FB9E
:103200001C00303078541846491C0028F3D123465E
:103210002A463046BDE8F04100F078B900000000D1
:103220002D0000002B000000200000002DE9F05FC1
:10323000894604464FF0000ADFF874B1FB44C0F839
:1032400020A02046E1688847002874D0252806D0B1
:10325000D4E901219047206A401C2062F1E7002652
:103260005F462046E16888472028054607DB312D68
:1032700005D2781910F8200C08B10643F1E7B00721
:1032800001D526F00406C4F81CA00027C4F818A035
:103290002A2D09D0284601F090FA38B304EB8708AC
:1032A000303DC8F8185019E059F8041B204604EBCB
:1032B00087029161E1688847012F054618D1E069CE
:1032C000002820DA26F020061DE0D8F8180000EBD0
:1032D000800005EB40003038C8F818002046E1684F
:1032E0008847054601F069FA0028EED1012F0AD07F
:1032F0002E2D08D12046E16888477F1C0546022F05
:1033000046F02006C4DBA069002803DA404246F0FC
:103310000106A061F00701D026F010066C2D0BD03D
:10332000682D09D04C2D39D06A2D35D0742D35D06B
:103330007A2D33D016E038E0E1682F4620468847E2
:10334000B842054609D16C2F26D04FF48060E16861
:10335000064320468847054604E06C2F1AD04FF4F8
:10336000807006430DB3A5F14100192802D820351D
:1033700046F400664A462946204626604E46FCF73B
:1033800011FF80B101280BD0F61D26F0070000F1D7
:10339000080956E74020E4E78020D8E70020D6E778
:1033A00006F104094DE7284652E7206ABDE8F09F80
:1033B0007A18000030B505460B462A4613F8014B33
:1033C00012F8010B08B1A042F8D01CB1002802D0BD
:1033D0006D1CF1E7284630BD10B5431C02E010F823
:1033E000011B71B18107FAD14FF0013202C88C1A6A
:1033F0008C4314EAC211F9D0C01A0A0603D0C01EC9
:1034000010BDC01A10BD0A0401D0801E10BD0902F3
:10341000FCD0401E10BD421E12F8013F002BFBD114
:1034200011F8013B002B02F8013BF9D1704710B5B0
:10343000203AC0F00B80B1E81850203AA0E81850AC
:10344000B1E81850A0E81850BFF4F5AF5FEA027C6D
:1034500024BFB1E81850A0E8185044BF18C918C0DC
:10346000BDE810405FEA827C24BF51F8043B40F87D
:10347000043B08BF7047D20728BF31F8023B48BF62
:1034800011F8012B28BF20F8023B48BF00F8012BA0
:103490007047704770477047704770B5044685693C
:1034A0000068C10601D5302600E02026C00707D0FD
:1034B00070BDD4E9012130469047206A401C20624B
:1034C0006D1EF6D570BD70B5044685690078C007DD
:1034D00007D170BDD4E9012120209047206A401C0B
:1034E00020626D1EF6D570BD09684A0501D540B24F
:1034F0007047C905FCD500B2704709684A0501D577
:10350000C0B27047C905FCD580B270472DE9F047BD
:103510000D4699469246044600F124080168880643
:1035200004D5E06921F01001216000E00120A842EB
:1035300001DD471B00E00027A1697A1902EB0900B1
:10354000081AA0612078C00602D42046FFF7A5FF24
:10355000002608E0D4E901211AF806009047206A05
:10356000401C761C20624E45F4DB2078C0060AD54C
:103570002046FFF792FF06E0D4E901213020904772
:10358000206A401C2062381EA7F10107F4DC07E026
:10359000D4E9012118F805009047206A401C2062F8
:1035A000281EA5F10105F3DC2046FFF78CFF2078EB
:1035B000000602D50220BDE8F0870120FBE7116874
:1035C0000268006A530501D508700AE0D30501D5E9
:1035D000088006E0130603D5C217C1E9000200E027
:1035E000086001207047000001694A1C02610878E8
:1035F000704700B58FB0CDE9013100210591054933
:103600007944CDE9031011466846FFF70FFE0FB06D
:1036100000BD0000E5FFFFFF0A6802F8010B0A6029
:10362000704710B5436913B1AFF3008001E0FFF7B5
:1036300097FD012010BD127800F124010A700022CC
:103640004A700122EDE711684FF0FF32E9E7000010
:10365000074B70B50D467B44FFF7CBFF0446284669
:1036600000F08EFB10B14FF0FF3070BD204670BDF2
:10367000F7DCFFFF2DE9FF5F15468A460446DFF8B9
:10368000AC80F8440027D8E900103E46CDE9001090
:1036900010E03AF816106A4602A800F075FB411CCB
:1036A00007D02178890603D5E269391891420DD8EF
:1036B0000744761C2078800602D5E069B84205DD13
:1036C000AE42E6DB3AF816000028E2D1A069C01B42
:1036D000A0612046FFF7E1FED8E90010CDE9001017
:1036E000002017E03AF818106A4602A800F04CFBD8
:1036F000B0F1FF3F81460BD000250DF1080B05E02E
:10370000D4E901211BF8050090476D1C4D45F7D306
:1037100008F10100B0428046E4DB206A38442062B0
:103720002046FFF7D0FEBDE8FF9F000046140000D2
:103730002DE9F0418046D21D22F007020025D2E992
:103740000002F52915A614D0011E72F1000106DA57
:103750000023D0EB030063EB020211A608E0D8F8C7
:1037600000108B0701D50FA602E0490701D50EA670
:1037700001251146002408F1240704E000F098F820
:1037800030323A55641C50EA0102F7D12B463246DA
:1037900021464046BDE8F041FFF7B8BE00000000FA
:1037A0002D0000002B0000002000000030B400219C
:1037B00000F1240408E002F00705D208303542EA9F
:1037C0004372DB086554491C52EA0305F3D10468CF
:1037D000002310A2250708D504F020040C4304D0D0
:1037E000C46901230CA2641EC46130BCFFF78EBE05
:1037F00010B5044621461068FFF77FFE02462046BA
:10380000BDE810400023D1E7D21D22F00701D1E925
:103810000023CBE70000000030000000F0B40D46AC
:103820000188090502D5214C7C4402E01F4C7C44F0
:103830000E34002100F1240608E002F00F071209FF
:10384000E75D42EA03721B097754491C52EA0307F9
:10385000F3D102780023120704D5702D06D009B1E8
:10386000022311342246F0BCFFF750BE012310346E
:10387000F8E770B504460D4621461068FFF73DFE97
:10388000024629462046BDE870400023C6E7D21D07
:1038900022F00703D3E90023C0E70368126843F06E
:1038A000200303600823C3610023B7E7A8120000C8
:1038B00030B5B0F10A024FEA900E71F100034EEA02
:1038C000817EB0EB0E0061EB91014FEA101E4EEAD3
:1038D000017E10EB0E0041EB11114FEA102E4EEA63
:1038E000016E10EB0E0041EB11214FEA104E4EEA33
:1038F000014E10EB0E0041EB1141401841F1000167
:103900004FEAD00040EA41704FEAD10110EB800548
:103910004FEA810444EA907444EB01046D1944EBCE
:103920000404521BA3414FF0000348BF0A3200D5E4
:1039300030BD401C41F1000130BD70472DE9FF4F03
:103940000C461E464FF0FF378BB0D2E90001DDF880
:1039500060800A908A46C1F30A5505B93D460021A8
:1039600008464FF00000BAF1000F00F4400005DAFD
:1039700000EB80004FF4400101EA50004FEA9059FB
:10398000B9F1010F00DDB9460A9850EA4A000ED09D
:1039900044F61050A5F2FF3545432F14B8F1000F3F
:1039A0001ED07542291E1EDDC9F100021CE0B8F1CF
:1039B000010F4FF0000001D0302103E0F24305E099
:1039C0002154401CB042FBDB304600220021215430
:1039D0000B99C1F80880C1E900200FB0BDE8F08F55
:1039E000BD1B6D1CDEE74A4600DA694206A800F0FE
:1039F0005DFA06AB93E8070003AB83E80700504687
:103A00000A9900F00BFB8DE80700A0F500501F3865
:103A100000900398002D09DD42F21F014A46084438
:103A200003A90390684600F06AFD08E0A0F5005085
:103A30004A461F3803A90390684600F074FD8DE8DC
:103A400007000004000C03D04FF0FF30410800E0F5
:103A50001046B8F1000F03D00022009215461EE078
:103A6000751E05D4FFF724FF303262556D1EF9D55F
:103A7000B3460122084302D000227F1C04E02078D4
:103A8000302801D100227F1E002A099786D01DE030
:103A9000112D07DAFFF70CFF303262556D1C50EA2A
:103AA0000102F5D1084302D00098C8B10EE0002110
:103AB000681E05E0235C625C63542254401E491C6E
:103AC0008142F7DBAB46A81B401E0990002004F89A
:103AD0000B000B98099AC0F80880C0E9002B7CE71E
:103AE00011264FF0000859E72DE9F04F88460446AB
:103AF000D21D22F0070191B0D1E90001CDE90A0100
:103B000000F047FE02460B98C00F01D02D2007E0C1
:103B10002068810701D52B2002E0202101EAC000A6
:103B2000032A099001D0072A05DB034641462046B7
:103B300000F07CF90BE12078800601D5E06900E017
:103B40000620B8F1650F814606D0B8F1660F18D08F
:103B5000B8F1670F70D131E00020B9F1110F00907A
:103B600001DB112301E009F101030AAA01A90CA854
:103B7000FFF7E4FEDDE90C70002609F1010583463C
:103B800047E001204B4600904FF000470AAA01A9E8
:103B90000CA8FFF7D3FEDDE90DB00C995D460026B9
:103BA00010B909F101000D18B9EB050003D4C0F1FB
:103BB000FF3609F10105A5EB09002BE0B9F1010F72
:103BC00001DA4FF001090020B9F1110F00904846C9
:103BD00001DD112300E003460AAA01A90CA8FFF7A2
:103BE000ADFEDDE90C704D460026834620780007C7
:103BF0000AD4AB4500DA5D4601A8012D04DD411968
:103C000011F8011C302907D04F4502DA17F1040FD3
:103C100004DA012082460FE06D1EEEE7002F02DC81
:103C2000ED1B3E4403E0781CA84200DD7D1CB81B60
:103C300000F1010A4FF000472078000703D4AA459D
:103C400001DB4FF0FF3A0021B7F1004F0DF14308BF
:103C50008DF8431024D002202B23002F01DA7F425D
:103C60002D230A21021EA0F1010000DC5FB197FBA9
:103C7000F1FC97FBF1F201FB1C7C17460CF1300CB8
:103C800008F801CDEEE7A8F10100037021880905CD
:103C900001D5452100E06521A0F1010800F8011CD3
:103CA00009980FA9A1EB0807FF1D00B101204119D8
:103CB00001EBEA70A1693844081A401EA06120781F
:103CC000C00602D42046FFF7E8FB099828B1D4E9E2
:103CD00001219047206A401C20622078C00622D52E
:103CE0002046FFF7DAFB1EE0002E04DBB34502DDC1
:103CF00001A8805D00E03020D4E901219047206ACE
:103D0000401C2062761CAAF101005FEA000A0AD179
:103D100000F088F8C0680168405CD4E90121904750
:103D2000206A401C2062281EA5F10105DCDC07E0AA
:103D3000D4E9012118F8010B9047206A401C206249
:103D4000381EA7F10107F3DC2046FFF7BCFB032078
:103D500011B043E610B5436913B1AFF3008001E041
:103D6000FFF788FC012010BD128800F12401828435
:103D70000022C2840122EDE711684FF0FF32E9E72B
:103D8000007B00F08000704770B516460C46054673
:103D900000F040F8036893F80101012806D0FF2CD9
:103DA0000FD8185D68B101202C7070BDD3F80701E1
:103DB0003246214603F2071303442846BDE870400B
:103DC00018474FF0FF3070BD754600F0E3F8AE467F
:103DD00005006946534620F00700854618B020B517
:103DE000FDF762FBBDE820404FF000064FF00007F2
:103DF0004FF000084FF0000B21F00701AC46ACE893
:103E0000C009ACE8C009ACE8C009ACE8C0098D46FF
:103E10007047000010B500F005F8001D10BD00BF90
:103E2000D509000000487047100600202DE9F04138
:103E30001F46044603260168072A01F4006004DBDC
:103E400008B116A505E016A503E008B115A500E028
:103E500015A521F010002060A069C01EA0610FB15F
:103E6000401EA0612046FFF718FB4FB1D4E90121A5
:103E700038469047206A401C2062C01C206206E041
:103E8000206AFAE7D4E9012115F8010B9047761E64
:103E9000F8D22046FFF717FBBDE8F0814E414E00F7
:103EA0006E616E00494E4600696E66002DE9F0476E
:103EB000814616468AB0334878440DC88DE80D0017
:103EC00030487844801C03AC0DC884E80D0041F6EE
:103ED0009B300844372190FBF1F290FBF1F5A5F1FE
:103EE000800501FB12041B3C02D56442012000E066
:103EF0000020DFF890A080460027FA44AAF1BE0A0D
:103F00000DE0E00709D03246684607EB47010AEBAF
:103F1000810100F008FB8DE8070064107F1C002C75
:103F2000EFD1184F7F44AC3F18E0E80714D007EBFF
:103F300004100DF1180A90E80E008AE80E00C0681F
:103F4000F04201D198190890324606A903A800F062
:103F5000EAFA03AB83E807006D10641C002DE4D17E
:103F600032466946B8F1000F03A802D000F0C7FA44
:103F700001E000F0D8FAC9E90001C9F808200AB048
:103F8000BDE8F087BC0C00000446AFF3008020467B
:103F9000FCF76BF900487047F00500204FF0013C3A
:103FA00050F8042B51F8043B9A4221D1A2EB0C03A8
:103FB000934313EACC1317D150F8042B51F8043B68
:103FC0009A4215D1A2EB0C03934313EACC130BD105
:103FD00050F8042B51F8043B9A4209D1A2EB0C0390
:103FE000934313EACC13DBD04FF00000704700BFBF
:103FF000D01A01BAB1FA81F101F0180122FA01F0E8
:10400000CB40C1F12001DBB2C0B2C01A2CFA01F3DF
:10401000D11A914311EAC311E6D170475FEA400C0F
:1040200008BF91F0000F4FEA8C234FEAC12243EA08
:1040300051514FEA1C5018BF00F5F0404FEA3000D4
:1040400018BF41F000415FEA6C5C00F02980BCF1D0
:10405000FF3F08BF40F080407047130C06BF1204BA
:104060004FF0100C4FF0000C130E04BF12020CF1B5
:10407000080C130F04BF12010CF1040C930F04BFC2
:1040800092000CF1020CD30F04BF52000CF1010C92
:1040900011464FF00002A0F11F00A0EB0C0070478A
:1040A00011F0004F08BF704731F000413FF4D5AF29
:1040B0000B0C06BF09044FF0100C4FF0000C0B0E58
:1040C00004BF09020CF1080C0B0F04BF09010CF12D
:1040D000040C8B0F04BF89000CF1020CCB0F04BF42
:1040E00049000CF1010CCCF12003A0EB0C0022FAEA
:1040F00003F302FA0CF241EA030100F101007047F8
:1041000020F07F4C80EA030023F07F47ACEB0703ED
:1041100003F57C5300F0004003F1FF032DE98049D3
:104120004FEA154B09B44FEA144325EA0B4E24EA33
:1041300003480FF2042606EB132749083E785FEA8E
:10414000320203FB0667C7F5000707FB06F64FEAD6
:1041500054374FEAD64606F1020607FB066CCCF14F
:10416000005C4FEA1C472CEA074C07FB06F40CFBEB
:1041700006F504EB15464FEA961634BF00204FF0C3
:1041800000404FEAD13706FB07FC4FEA1C4C0CFB02
:104190000BF7D21B03FB0CF761EB07010CFB0EF7CF
:1041A000B0EB074072EB17420CFB08F734BFA2EBF1
:1041B0000742B2EB074261EB17414FEA0C444FEA6A
:1041C000910706FB07FC4FEA1C4C0CFB0BF7B0EB0E
:1041D000C74072EB573203FB0CF734BFA2EBC74268
:1041E000B2EBC74261EB57310CFB0EF7B0EBC700E7
:1041F00072EB57720CFB08F734BFA2EBC702B2EBAD
:10420000C70261EB5771039F4FEA816141EA921146
:1042100004EBCC044FEAD1374FEA826206FB07FC7D
:1042200042EA90124FEA80604FEA1C4C0CFB0BF7FD
:10423000D21B03FB0CF761EB07010CFB0EF7B0EB95
:10424000074072EB17420CFB08F734BFA2EB0742A2
:10425000B2EB074261EB17414FEA8C554FEA9107E9
:1042600004EB9C2406FB07FC4FEA1C4C0CFB0BF7F1
:10427000B0EBC74072EB573203FB0CF734BFA2EB35
:10428000C742B2EBC74261EB57310CFB0EF7B0EB04
:10429000C70072EB57720CFB08F734BFA2EBC702E2
:1042A000B2EBC70261EB577115EB4C254FEA816108
:1042B00041EA92114FEA82624FEAD13742EA901204
:1042C00006FB07FC44F100044FEA80604FEA1C4CF7
:1042D0000CFB0BF7D21B03FB0CF761EB07010CFB8C
:1042E0000EF7B0EB074072EB17420CFB08F734BF38
:1042F000A2EB0742B2EB074261EB174115EB1C152D
:104300004FEA813141EA92414FEA823242EA9042D9
:104310004FEA80304FEA0C7644F1000448EA034348
:104320004EEA0B484FF0000EB2EB080C71EB03079E
:1043300024BF624639464EEB0E0E4FF0000B0018BC
:10434000524149414BEB0B0BB2EB080C71EB0307ED
:104350007BF1000B24BF624639464EEB0E0E4FF048
:10436000000B0018524149414BEB0B0BB2EB080C10
:1043700071EB03077BF1000B24BF624639464EEB1D
:104380000E0E51EA020718BF46F0010616EB0E7634
:1043900055F1000254F1000103D5BDE88901BDE8E3
:1043A0000088BDE88901BDE80048B619524141EBDB
:1043B0000101A3F10103704780807F7E7D7C7B7AC1
:1043C0007978777676757473727171706F6E6E6DC1
:1043D0006C6C6B6A6A696868676666656464636367
:1043E00062616160605F5F5E5E5D5D5C5C5B5B5AED
:1043F0005A5959585857575656555555545453535A
:1044000052525251515050504F4F4F4E4E4D4D4DB4
:104410004C4C4C4B4B4B4A4A4A49494948484847FF
:10442000474747464646454545444444444343433D
:104430004342424242414141002B26D4770021D0E1
:104440001CB54FEA370703B44FF010004FF01001CE
:104450004FF000000FBCBDE810400BF1010BBBF1A9
:10446000010F08BF5FEA170722BF12F1010211F125
:1044700001014FF0004143F1000300F0004043EA26
:1044800000007047F9D35708DAE746EA064613F109
:10449000400F4FEA16461FDD13F1200FDFBF164312
:1044A0000A46002120335B42C8D0C3F1200746EA08
:1044B000064602FA07F74FEA164646EA0706C3F130
:1044C000200722FA03F201FA07F721FA03F14FF06D
:1044D000000342EA0702B1E746EA020646EA064658
:1044E0004FEA164646EA0106BCBF46EA0646360CC7
:1044F0004FF000034FF000024FF000019EE72DE95E
:10450000C048934630B491E8380007C831EA400CFF
:1045100048BF34EA430C03D5FFF7F2FDFFF78CFFE9
:10452000F0BCBDE800882DE9C048934630B491E85E
:10453000380007C810F0804F08BF13F0804F03D138
:1045400000F005F8FFF778FFF0BCBDE8008820F028
:104550007F4780EA030023F07F4C07EB0C03A3F5B1
:104560007C5300F00040A3F1FE0392F0000F00F036
:10457000B38095F0000F00F077802DE901494FEAF4
:1045800011404FEA144621EA004800FB06FC24EAE9
:10459000064708FB06F607FB08F800FB07F718EBD1
:1045A00006484CEB164C4FEA124B18EB07484FEA03
:1045B00015464CEB174022EA0B4E0BFB06FC25EA96
:1045C00006470EFB06F607FB0EFE0BFB07F71EEB7E
:1045D000064E4CEB164C4FF000061EEB074E4CEB14
:1045E000174B18EB0B0840F1000018EB0E0B58EBC3
:1045F000000840F100008F1A4FF000013CBFC94392
:10460000661B14BFB5EB040C00213CBFC943F61B6D
:104610004FEA17444EEA8E0E27EA04454FEA1C473C
:1046200004FB07622CEA074C05FB07F70CFB05F6B9
:1046300004FB0CFC16EB074642EB174216EB0C464C
:1046400042EB1C421BEB060658EB0202414146EAD4
:104650009E0601D5BDE80189B619524141EB010121
:10466000A3F10103BDE801894FEA14454FEA114760
:1046700024EA054621EA074C05FB07F406FB07F789
:104680000CFB06F105FB0CFC11EB074144EB174456
:104690004FEA124711EB0C4144EB1C4422EA074C51
:1046A00005FB07F206FB07F70CFB06F605FB0CFC07
:1046B00016EB074642EB174216EB0C4642EB1C4545
:1046C0006A1854F1000148BF7047B619524141EBD6
:1046D0000101A3F10103704795F0000F37D04FEAB5
:1046E00011424FEA144721EA024624EA074C02FB32
:1046F00007F106FB07F70CFB06F402FB0CFC14EBBE
:10470000074441EB17414FEA154714EB0C4441EBCA
:104710001C4125EA074C02FB07F506FB07F70CFBDB
:1047200006F602FB0CFC16EB074645EB174516EBAD
:104730000C4645EB1C42121951F1000148BF70476D
:10474000B619524141EB0101A3F1010370474FEA51
:1047500014454FEA114724EA054621EA074C05FBB8
:1047600007F106FB07F70CFB06F24FF0000605FB0E
:104770000CFC12EB074241EB174112EB0C4251EBE0
:104780001C4148BF7047921841EB0101A3F101039E
:104790007047490050EAC12018BF04204A0D18BFD5
:1047A00040F0010040F2FF72B2EB515F08BF40F0F1
:1047B0000200012808BF0520704730380A2801D2BE
:1047C000012070470020704710B500290AD00878F2
:1047D000002807D005487844FFF7E0FB002801D007
:1047E000002010BD0248784410BD0000DA0300002C
:1047F000D203000010B500290AD00878002807D09D
:1048000005487844FFF7CAFB002801D0002010BDFE
:104810000248784410BD0000CA030000C203000033
:1048200021F00042A2F16052B2F5801F01F0004376
:1048300028BFD2F17F6C0BD95FEA001C43EAC202A9
:1048400042EB507018BF704728BF20F0010070473E
:10485000B2F5801FBCBF184670474FEA410C1CF5EB
:10486000001F02D2084600F021B970B500F0CAF866
:1048700000000089FFF7F6BF4FF00040A0F5800070
:10488000704710F0004248BF4042B0FA80F310FA7F
:1048900003F10AD0C3F11D0303F580634FEA4150D1
:1048A00002EB035202EBD12170474FF0000070473A
:1048B000DFF848C170B51CEA111E1EBF1CEA1315B3
:1048C0009EEA0C0F95EA0C0F00F06F8081EA03045A
:1048D00023EA4C134EEAD47E21EA4C1141F48011B4
:1048E00043F48013AE44A1FB024CA0FB0365AEF180
:1048F0007F7E361955EB0C05A1FB034C4CF10003F0
:10490000A0FB021C16EB0C06654153F100030942A3
:1049100018BF46F0010613F4007F0BD14FEA0331B4
:104920004FEA0530340341EA155140EA16506FF062
:1049300003020AE04FEAC3214FEAC520F40241EA2C
:10494000555140EA56506FF0020202EB2E4201EB45
:10495000025585EACE710AD05FEA440C18BF24F0F4
:10496000004450F1000041F1000120EAD47040F20F
:10497000FE7C624500D270BDA84214BF4FF0804457
:104980004FF04044002E08BF0024BEF1806FA8BF46
:10499000A1F1C041BDE8704080F282804FF000007C
:1049A00001F1C04101F0004170479EEA0C0F0CEA92
:1049B000131518BF95EA0C0F06D04FF0000081EADE
:1049C000030E0EF0004170BD00F01CF88900013E9E
:1049D00000F007B800F009B84FEA430C5FEA5C5CEE
:1049E00008D081EA030100F05BB84FEA410C5FEAAE
:1049F0005C5CF6D14FF00000014970470000FF07F2
:104A00000000F87F0EF1020E2EF0030E5EF8046B2C
:104A1000364205D4012A43EB030515F5001F12D8D1
:104A2000012841EB010C1CF5001F0CD80ED14FEAF8
:104A3000D17C15F5001F0CEB4C0C0CF1020C08BFDF
:104A40004CEBD37C04E04FF0080C01E04FEAD37C40
:104A50000CEB4C0526FA05F606F00706B6F1040C39
:104A600006D20EEB860CBDE870404CF0010C60479E
:104A7000DFE80CF0090B02024FF000414FF000009C
:104A8000A1F5002170BD19461046012851EB010423
:104A900018BFD4F5001484BF002001F0004170BDA0
:104AA0000808A0F500114FEA31017047FF2141EAE3
:104AB000D050C0057047FFF717B804000008000089
:104AC00000000000000200010000100000000000D3
:104AD0000000000030313233343536373839414246
:104AE0004344454640305800303132333435363750
:104AF00038396162636465664030780002400000C6
:104B0000000000A00000000005400000000000C8F8
:104B1000000000000C4000000000409C000000006D
:104B2000194000000020BCBE00000000344000001E
:104B3000BFC91B8E00000004B5400000504BCFD011
:104B40006607E2CF010000006C4100003E8251AADE
:104B5000DFEEA73401000000D9420000DCB5A0E27E
:104B60003A301F97FFFFFFFFB4450000FD25A0C8A6
:104B7000E9A3C14FFFFFFFFFFF3F000000000080DF
:104B800000000000FF3F0000000000800000000067
:104B9000DC4C000800000020800000006C010008D0
:104BA0005C4D000880000020D00B00008801000848
:104BB0001C00000043000000F8FFFFFF0C00000095
:104BC0000E0000000F0000002E0000001001000089
:104BD00043000000F8FFFFFF0040404040404040DD
:104BE00040404141414141404040404040404040C0
:104BF0004040404040404040400502020202020264
:104C000002020202020202020220202020202020B2
:104C100020202002020202020202909090909090C6
:104C20001010101010101010101010101010101084
:104C300010101010020202020202888888888888F8
:104C400008080808080808080808080808080808E4
:104C500008080808020202024000000000000000EC
:104C60000000000000000000000000000000000044
:104C70000000000000000000000000000000000034
:104C80000000000000000000000000000000000024
:104C90000000000000000000000000000000000014
:104CA0000000000000000000000000000000000004
:104CB00000000000000000000000000000000000F4
:104CC00000000000000000000000000000000000E4
:104CD00000000000000000000000000000A24A04E4
:104CE000000000000000000001020304060708099C
:104CF00000000000010000000000000000000000B3
:104D000000000000000000000000000000000000A3
:104D10000000000000000000000000000000000093
:104D2000080000000000000000000000000000007B
:104D30000000000000000000000000010000000072
:104D40000000000000000000000001020304010256
:0C4D50000304060708090204060800001E
:0400000508000131BD
:00000001FF
