Component: ARM Compiler 5.05 update 1 (build 106) Tool: armlink [4d0efa]

==============================================================================

Section Cross References

    main.o(.text) refers to _printf_percent.o(.ARM.Collect$$_printf_percent$$00000000) for _printf_percent
    main.o(.text) refers to _printf_s.o(.ARM.Collect$$_printf_percent$$00000014) for _printf_s
    main.o(.text) refers to _printf_str.o(.text) for _printf_str
    main.o(.text) refers to _printf_d.o(.ARM.Collect$$_printf_percent$$00000009) for _printf_d
    main.o(.text) refers to _printf_dec.o(.text) for _printf_int_dec
    main.o(.text) refers to delay.o(.text) for delay_init
    main.o(.text) refers to led.o(.text) for LED_Init
    main.o(.text) refers to key.o(.text) for KEY_Init
    main.o(.text) refers to usart.o(.text) for uart_init
    main.o(.text) refers to usart2.o(.text) for USART2_Init
    main.o(.text) refers to usart3.o(.text) for usart3_init
    main.o(.text) refers to __2printf.o(.text) for __2printf
    main.o(.text) refers to strstr.o(.text) for strstr
    main.o(.text) refers to stm32f10x_gpio.o(.text) for GPIO_ResetBits
    main.o(.text) refers to usart3.o(.data) for read_enable
    main.o(.text) refers to usart3.o(.bss) for mqtt_Buffer
    main.o(.text) refers to usart2.o(.data) for USART2_RX_STA
    main.o(.text) refers to usart2.o(.bss) for USART2_RX_BUF
==============================================================================

Removing Unused input sections from the image.

    Removing sys.o(.emb_text), (6 bytes).
    Removing sys.o(.text), (12 bytes).
    Removing core_cm3.o(.emb_text), (32 bytes).

3 unused section(s) (total 50 bytes) removed from the image.

==============================================================================

Image Symbol Table

    Local Symbols

    Symbol Name                              Value     Ov Type        Size  Object(Section)

    ../clib/angel/boardlib.s                 0x00000000   Number         0  boardinit3.o ABSOLUTE
    ../clib/angel/boardlib.s                 0x00000000   Number         0  boardinit2.o ABSOLUTE
    ../clib/angel/boardlib.s                 0x00000000   Number         0  boardinit1.o ABSOLUTE
    ../clib/angel/boardlib.s                 0x00000000   Number         0  boardshut.o ABSOLUTE
    ../clib/angel/handlers.s                 0x00000000   Number         0  __scatter_copy.o ABSOLUTE
    ../clib/angel/handlers.s                 0x00000000   Number         0  __scatter_zi.o ABSOLUTE
    ../clib/angel/kernel.s                   0x00000000   Number         0  rtexit2.o ABSOLUTE
    ../clib/angel/kernel.s                   0x00000000   Number         0  __rtentry4.o ABSOLUTE
    ../clib/angel/kernel.s                   0x00000000   Number         0  rtexit.o ABSOLUTE
    ../clib/angel/kernel.s                   0x00000000   Number         0  __rtentry2.o ABSOLUTE
    ../clib/angel/kernel.s                   0x00000000   Number         0  __rtentry.o ABSOLUTE
    ../clib/angel/rt.s                       0x00000000   Number         0  rt_locale.o ABSOLUTE
    ../clib/angel/rt.s                       0x00000000   Number         0  rt_raise.o ABSOLUTE
    ../clib/angel/rt.s                       0x00000000   Number         0  rt_locale_intlibspace.o ABSOLUTE
    ../clib/angel/rt.s                       0x00000000   Number         0  rt_ctype_table.o ABSOLUTE
    ../clib/angel/scatter.s                  0x00000000   Number         0  __scatter.o ABSOLUTE
    ../clib/angel/startup.s                  0x00000000   Number         0  __main.o ABSOLUTE
    ../clib/angel/sys.s                      0x00000000   Number         0  sys_stackheap_outer.o ABSOLUTE
    ../clib/angel/sys.s                      0x00000000   Number         0  use_no_semi.o ABSOLUTE
    ../clib/angel/sys.s                      0x00000000   Number         0  indicate_semi.o ABSOLUTE
    ../clib/angel/sys.s                      0x00000000   Number         0  libspace.o ABSOLUTE
    ../clib/angel/sys.s                      0x00000000   Number         0  use_no_semi_2.o ABSOLUTE
    ../clib/angel/sysapp.c                   0x00000000   Number         0  sys_wrch.o ABSOLUTE
    ../clib/angel/sysapp.c                   0x00000000   Number         0  sys_command.o ABSOLUTE
    ../clib/armsys.c                         0x00000000   Number         0  _get_argv_nomalloc.o ABSOLUTE
    ../clib/armsys.c                         0x00000000   Number         0  argv_veneer.o ABSOLUTE
    ../clib/armsys.c                         0x00000000   Number         0  no_argv.o ABSOLUTE
    ../clib/armsys.c                         0x00000000   Number         0  argv_veneer.o ABSOLUTE
    ../clib/bigflt.c                         0x00000000   Number         0  bigflt0.o ABSOLUTE
    ../clib/btod.s                           0x00000000   Number         0  btod.o ABSOLUTE
    ../clib/heapalloc.c                      0x00000000   Number         0  hrguard.o ABSOLUTE
    ../clib/heapaux.c                        0x00000000   Number         0  heapauxi.o ABSOLUTE
    ../clib/libinit.s                        0x00000000   Number         0  libinit.o ABSOLUTE
    ../clib/libinit.s                        0x00000000   Number         0  libshutdown2.o ABSOLUTE
    ../clib/libinit.s                        0x00000000   Number         0  libshutdown.o ABSOLUTE
    ../clib/libinit.s                        0x00000000   Number         0  libinit2.o ABSOLUTE
    ../clib/locale.c                         0x00000000   Number         0  _wcrtomb.o ABSOLUTE
    ../clib/locale.s                         0x00000000   Number         0  lc_numeric_c.o ABSOLUTE
    ../clib/locale.s                         0x00000000   Number         0  lc_ctype_c.o ABSOLUTE
    ../clib/longlong.s                       0x00000000   Number         0  lludiv10.o ABSOLUTE
    ../clib/memcpset.s                       0x00000000   Number         0  rt_memcpy_w.o ABSOLUTE
    ../clib/memcpset.s                       0x00000000   Number         0  strcmpv7m.o ABSOLUTE
    ../clib/misc.s                           0x00000000   Number         0  printf_stubs.o ABSOLUTE
    ../clib/printf.c                         0x00000000   Number         0  __printf_flags.o ABSOLUTE
    ../clib/printf.c                         0x00000000   Number         0  __printf_ss.o ABSOLUTE
    ../clib/printf.c                         0x00000000   Number         0  __printf_flags_ss.o ABSOLUTE
    ../clib/printf.c                         0x00000000   Number         0  __printf_wp.o ABSOLUTE
    ../clib/printf.c                         0x00000000   Number         0  _printf_hex_int_ll.o ABSOLUTE
    ../clib/printf.c                         0x00000000   Number         0  __printf_flags_wp.o ABSOLUTE
    ../clib/printf.c                         0x00000000   Number         0  __printf_ss_wp.o ABSOLUTE
    ../clib/printf.c                         0x00000000   Number         0  __printf_flags_ss_wp.o ABSOLUTE
    ../clib/printf.c                         0x00000000   Number         0  _printf_hex_ptr.o ABSOLUTE
    ../clib/printf.c                         0x00000000   Number         0  _printf_hex_int_ptr.o ABSOLUTE
    ../clib/printf.c                         0x00000000   Number         0  _printf_hex_ll_ptr.o ABSOLUTE
    ../clib/printf.c                         0x00000000   Number         0  _printf_hex_int_ll_ptr.o ABSOLUTE
    ../clib/printf.c                         0x00000000   Number         0  _printf_pad.o ABSOLUTE
    ../clib/printf.c                         0x00000000   Number         0  __printf_nopercent.o ABSOLUTE
    ../clib/printf.c                         0x00000000   Number         0  _printf_truncate.o ABSOLUTE
    ../clib/printf.c                         0x00000000   Number         0  _printf_fp_dec.o ABSOLUTE
    ../clib/printf.c                         0x00000000   Number         0  _printf_intcommon.o ABSOLUTE
    ../clib/printf.c                         0x00000000   Number         0  _printf_wchar.o ABSOLUTE
    ../clib/printf.c                         0x00000000   Number         0  _printf_charcount.o ABSOLUTE
    ../clib/printf.c                         0x00000000   Number         0  _printf_fp_infnan.o ABSOLUTE
    ../clib/printf.c                         0x00000000   Number         0  _printf_char_common.o ABSOLUTE
    ../clib/printf.c                         0x00000000   Number         0  _sputc.o ABSOLUTE
    ../clib/printf.c                         0x00000000   Number         0  _printf_char.o ABSOLUTE
    ../clib/printf.c                         0x00000000   Number         0  _printf_char_file.o ABSOLUTE
    ../clib/printf.c                         0x00000000   Number         0  _printf_wctomb.o ABSOLUTE
    ../clib/printf.c                         0x00000000   Number         0  _printf_longlong_dec.o ABSOLUTE
    ../clib/printf.c                         0x00000000   Number         0  _printf_oct_ll.o ABSOLUTE
    ../clib/printf.c                         0x00000000   Number         0  c89vsprintf.o ABSOLUTE
    ../clib/printf.c                         0x00000000   Number         0  _printf_oct_int.o ABSOLUTE
    ../clib/printf.c                         0x00000000   Number         0  __2printf.o ABSOLUTE
    ../clib/printf.c                         0x00000000   Number         0  _printf_oct_int_ll.o ABSOLUTE
    ../clib/printf.c                         0x00000000   Number         0  noretval__2printf.o ABSOLUTE
    ../clib/printf.c                         0x00000000   Number         0  __printf.o ABSOLUTE
    ../clib/printf.c                         0x00000000   Number         0  _printf_str.o ABSOLUTE
    ../clib/printf.c                         0x00000000   Number         0  _printf_hex_ll.o ABSOLUTE
    ../clib/printf.c                         0x00000000   Number         0  _printf_dec.o ABSOLUTE
    ../clib/printf.c                         0x00000000   Number         0  _printf_hex_int.o ABSOLUTE
    ../clib/printf_percent.s                 0x00000000   Number         0  _printf_llx.o ABSOLUTE
    ../clib/printf_percent.s                 0x00000000   Number         0  _printf_percent_end.o ABSOLUTE
    ../clib/printf_percent.s                 0x00000000   Number         0  _printf_g.o ABSOLUTE
    ../clib/printf_percent.s                 0x00000000   Number         0  _printf_l.o ABSOLUTE
    ../clib/printf_percent.s                 0x00000000   Number         0  _printf_p.o ABSOLUTE
    ../clib/printf_percent.s                 0x00000000   Number         0  _printf_n.o ABSOLUTE
    ../clib/printf_percent.s                 0x00000000   Number         0  _printf_lc.o ABSOLUTE
    ../clib/printf_percent.s                 0x00000000   Number         0  _printf_i.o ABSOLUTE
    ../clib/printf_percent.s                 0x00000000   Number         0  _printf_ls.o ABSOLUTE
    ../clib/printf_percent.s                 0x00000000   Number         0  _printf_o.o ABSOLUTE
    ../clib/printf_percent.s                 0x00000000   Number         0  _printf_llu.o ABSOLUTE
    ../clib/printf_percent.s                 0x00000000   Number         0  _printf_lli.o ABSOLUTE
    ../clib/printf_percent.s                 0x00000000   Number         0  _printf_llo.o ABSOLUTE
    ../clib/printf_percent.s                 0x00000000   Number         0  _printf_lld.o ABSOLUTE
    ../clib/printf_percent.s                 0x00000000   Number         0  _printf_f.o ABSOLUTE
    ../clib/printf_percent.s                 0x00000000   Number         0  _printf_x.o ABSOLUTE
    ../clib/printf_percent.s                 0x00000000   Number         0  _printf_ll.o ABSOLUTE
    ../clib/printf_percent.s                 0x00000000   Number         0  _printf_percent.o ABSOLUTE
    ../clib/printf_percent.s                 0x00000000   Number         0  _printf_u.o ABSOLUTE
    ../clib/printf_percent.s                 0x00000000   Number         0  _printf_d.o ABSOLUTE
    ../clib/printf_percent.s                 0x00000000   Number         0  _printf_e.o ABSOLUTE
    ../clib/printf_percent.s                 0x00000000   Number         0  _printf_a.o ABSOLUTE
    ../clib/printf_percent.s                 0x00000000   Number         0  _printf_s.o ABSOLUTE
    ../clib/printf_percent.s                 0x00000000   Number         0  _printf_c.o ABSOLUTE
    ../clib/signal.c                         0x00000000   Number         0  defsig_stak_inner.o ABSOLUTE
    ../clib/signal.c                         0x00000000   Number         0  defsig_other.o ABSOLUTE
    ../clib/signal.c                         0x00000000   Number         0  defsig_segv_inner.o ABSOLUTE
    ../clib/signal.c                         0x00000000   Number         0  defsig_rtred_inner.o ABSOLUTE
    ../clib/signal.c                         0x00000000   Number         0  defsig_rtmem_formal.o ABSOLUTE
    ../clib/signal.c                         0x00000000   Number         0  defsig_cppl_inner.o ABSOLUTE
    ../clib/signal.c                         0x00000000   Number         0  defsig_abrt_inner.o ABSOLUTE
    ../clib/signal.c                         0x00000000   Number         0  defsig_general.o ABSOLUTE
    ../clib/signal.c                         0x00000000   Number         0  defsig_fpe_inner.o ABSOLUTE
    ../clib/signal.c                         0x00000000   Number         0  defsig_rtmem_outer.o ABSOLUTE
    ../clib/signal.c                         0x00000000   Number         0  defsig_exit.o ABSOLUTE
    ../clib/signal.c                         0x00000000   Number         0  defsig_rtmem_inner.o ABSOLUTE
    ../clib/signal.c                         0x00000000   Number         0  defsig_pvfn_inner.o ABSOLUTE
    ../clib/signal.c                         0x00000000   Number         0  __raise.o ABSOLUTE
    ../clib/signal.s                         0x00000000   Number         0  defsig.o ABSOLUTE
    ../clib/stdio.c                          0x00000000   Number         0  ferror.o ABSOLUTE
    ../clib/stdio.c                          0x00000000   Number         0  ferror_locked.o ABSOLUTE
    ../clib/stdlib.c                         0x00000000   Number         0  exit.o ABSOLUTE
    ../clib/string.c                         0x00000000   Number         0  strlen.o ABSOLUTE
    ../clib/string.c                         0x00000000   Number         0  strcat.o ABSOLUTE
    ../clib/string.c                         0x00000000   Number         0  strstr.o ABSOLUTE
    ../fplib/d2f.s                           0x00000000   Number         0  d2f.o ABSOLUTE
    ../fplib/dflt.s                          0x00000000   Number         0  dflt_clz.o ABSOLUTE
    ../fplib/dmul.s                          0x00000000   Number         0  dmul.o ABSOLUTE
    ../fplib/dnaninf.s                       0x00000000   Number         0  dnaninf.o ABSOLUTE
    ../fplib/dretinf.s                       0x00000000   Number         0  dretinf.o ABSOLUTE
    ../fplib/fpinit.s                        0x00000000   Number         0  fpinit.o ABSOLUTE
    ../fplib/fretinf.s                       0x00000000   Number         0  fretinf.o ABSOLUTE
    ../fplib/istatus.s                       0x00000000   Number         0  istatus.o ABSOLUTE
    ../fplib/printf1.s                       0x00000000   Number         0  printf1.o ABSOLUTE
    ../fplib/usenofp.s                       0x00000000   Number         0  usenofp.o ABSOLUTE
    ../mathlib/fpclassify.c                  0x00000000   Number         0  fpclassify.o ABSOLUTE
    ..\CORE\core_cm3.c                       0x00000000   Number         0  core_cm3.o ABSOLUTE
    ..\CORE\startup_stm32f10x_hd.s           0x00000000   Number         0  startup_stm32f10x_hd.o ABSOLUTE
    ..\HARDWARE\LED\key.c                    0x00000000   Number         0  key.o ABSOLUTE
    ..\HARDWARE\LED\led.c                    0x00000000   Number         0  led.o ABSOLUTE
    ..\HARDWARE\LED\usart2.c                 0x00000000   Number         0  usart2.o ABSOLUTE
    ..\HARDWARE\LED\usart3.c                 0x00000000   Number         0  usart3.o ABSOLUTE
    ..\STM32F10x_FWLib\src\misc.c            0x00000000   Number         0  misc.o ABSOLUTE
    ..\STM32F10x_FWLib\src\stm32f10x_dma.c   0x00000000   Number         0  stm32f10x_dma.o ABSOLUTE
    ..\STM32F10x_FWLib\src\stm32f10x_gpio.c  0x00000000   Number         0  stm32f10x_gpio.o ABSOLUTE
    ..\STM32F10x_FWLib\src\stm32f10x_rcc.c   0x00000000   Number         0  stm32f10x_rcc.o ABSOLUTE
    ..\STM32F10x_FWLib\src\stm32f10x_tim.c   0x00000000   Number         0  stm32f10x_tim.o ABSOLUTE
    ..\STM32F10x_FWLib\src\stm32f10x_usart.c 0x00000000   Number         0  stm32f10x_usart.o ABSOLUTE
    ..\SYSTEM\delay\delay.c                  0x00000000   Number         0  delay.o ABSOLUTE
    ..\SYSTEM\sys\sys.c                      0x00000000   Number         0  sys.o ABSOLUTE
    ..\SYSTEM\usart\usart.c                  0x00000000   Number         0  usart.o ABSOLUTE
    ..\\CORE\\core_cm3.c                     0x00000000   Number         0  core_cm3.o ABSOLUTE
    ..\\SYSTEM\\sys\\sys.c                   0x00000000   Number         0  sys.o ABSOLUTE
    dc.s                                     0x00000000   Number         0  dc.o ABSOLUTE
    main.c                                   0x00000000   Number         0  main.o ABSOLUTE
    stm32f10x_it.c                           0x00000000   Number         0  stm32f10x_it.o ABSOLUTE
    system_stm32f10x.c                       0x00000000   Number         0  system_stm32f10x.o ABSOLUTE
    RESET                                    0x08000000   Section      304  startup_stm32f10x_hd.o(RESET)
    !!!main                                  0x08000130   Section        8  __main.o(!!!main)
    !!!scatter                               0x08000138   Section       52  __scatter.o(!!!scatter)
    !!handler_copy                           0x0800016c   Section       26  __scatter_copy.o(!!handler_copy)
    !!handler_zi                             0x08000188   Section       28  __scatter_zi.o(!!handler_zi)
    .ARM.Collect$$_printf_percent$$00000000  0x080001a4   Section        0  _printf_percent.o(.ARM.Collect$$_printf_percent$$00000000)
    .ARM.Collect$$_printf_percent$$00000001  0x080001a4   Section        6  _printf_n.o(.ARM.Collect$$_printf_percent$$00000001)
    .ARM.Collect$$_printf_percent$$00000002  0x080001aa   Section        6  _printf_p.o(.ARM.Collect$$_printf_percent$$00000002)
    .ARM.Collect$$_printf_percent$$00000003  0x080001b0   Section        6  _printf_f.o(.ARM.Collect$$_printf_percent$$00000003)
    .ARM.Collect$$_printf_percent$$00000004  0x080001b6   Section        6  _printf_e.o(.ARM.Collect$$_printf_percent$$00000004)
    .ARM.Collect$$_printf_percent$$00000005  0x080001bc   Section        6  _printf_g.o(.ARM.Collect$$_printf_percent$$00000005)
    .ARM.Collect$$_printf_percent$$00000006  0x080001c2   Section        6  _printf_a.o(.ARM.Collect$$_printf_percent$$00000006)
    .ARM.Collect$$_printf_percent$$00000007  0x080001c8   Section       10  _printf_ll.o(.ARM.Collect$$_printf_percent$$00000007)
    .ARM.Collect$$_printf_percent$$00000008  0x080001d2   Section        6  _printf_i.o(.ARM.Collect$$_printf_percent$$00000008)
    .ARM.Collect$$_printf_percent$$00000009  0x080001d8   Section        6  _printf_d.o(.ARM.Collect$$_printf_percent$$00000009)
    .ARM.Collect$$_printf_percent$$0000000A  0x080001de   Section        6  _printf_u.o(.ARM.Collect$$_printf_percent$$0000000A)
    .ARM.Collect$$_printf_percent$$0000000B  0x080001e4   Section        6  _printf_o.o(.ARM.Collect$$_printf_percent$$0000000B)
    .ARM.Collect$$_printf_percent$$0000000C  0x080001ea   Section        6  _printf_x.o(.ARM.Collect$$_printf_percent$$0000000C)
    .ARM.Collect$$_printf_percent$$0000000D  0x080001f0   Section        6  _printf_lli.o(.ARM.Collect$$_printf_percent$$0000000D)
    .ARM.Collect$$_printf_percent$$0000000E  0x080001f6   Section        6  _printf_lld.o(.ARM.Collect$$_printf_percent$$0000000E)
    .ARM.Collect$$_printf_percent$$0000000F  0x080001fc   Section        6  _printf_llu.o(.ARM.Collect$$_printf_percent$$0000000F)
    .ARM.Collect$$_printf_percent$$00000010  0x08000202   Section        6  _printf_llo.o(.ARM.Collect$$_printf_percent$$00000010)
    .ARM.Collect$$_printf_percent$$00000011  0x08000208   Section        6  _printf_llx.o(.ARM.Collect$$_printf_percent$$00000011)
    .ARM.Collect$$_printf_percent$$00000012  0x0800020e   Section       10  _printf_l.o(.ARM.Collect$$_printf_percent$$00000012)
    .ARM.Collect$$_printf_percent$$00000013  0x08000218   Section        6  _printf_c.o(.ARM.Collect$$_printf_percent$$00000013)
    .ARM.Collect$$_printf_percent$$00000014  0x0800021e   Section        6  _printf_s.o(.ARM.Collect$$_printf_percent$$00000014)
    .ARM.Collect$$_printf_percent$$00000015  0x08000224   Section        6  _printf_lc.o(.ARM.Collect$$_printf_percent$$00000015)
    .ARM.Collect$$_printf_percent$$00000016  0x0800022a   Section        6  _printf_ls.o(.ARM.Collect$$_printf_percent$$00000016)
    .ARM.Collect$$_printf_percent$$00000017  0x08000230   Section        4  _printf_percent_end.o(.ARM.Collect$$_printf_percent$$00000017)
    .ARM.Collect$$libinit$$00000000          0x08000234   Section        2  libinit.o(.ARM.Collect$$libinit$$00000000)
    .ARM.Collect$$libinit$$00000002          0x08000236   Section        0  libinit2.o(.ARM.Collect$$libinit$$00000002)
    .ARM.Collect$$libinit$$00000004          0x08000236   Section        0  libinit2.o(.ARM.Collect$$libinit$$00000004)
    .ARM.Collect$$libinit$$0000000A          0x08000236   Section        0  libinit2.o(.ARM.Collect$$libinit$$0000000A)
    .ARM.Collect$$libinit$$0000000C          0x08000236   Section        0  libinit2.o(.ARM.Collect$$libinit$$0000000C)
    .ARM.Collect$$libinit$$0000000E          0x08000236   Section        0  libinit2.o(.ARM.Collect$$libinit$$0000000E)
    .ARM.Collect$$libinit$$0000000F          0x08000236   Section        6  libinit2.o(.ARM.Collect$$libinit$$0000000F)
    .ARM.Collect$$libinit$$00000011          0x0800023c   Section        0  libinit2.o(.ARM.Collect$$libinit$$00000011)
    .ARM.Collect$$libinit$$00000012          0x0800023c   Section       12  libinit2.o(.ARM.Collect$$libinit$$00000012)
    .ARM.Collect$$libinit$$00000013          0x08000248   Section        0  libinit2.o(.ARM.Collect$$libinit$$00000013)
    .ARM.Collect$$libinit$$00000015          0x08000248   Section        0  libinit2.o(.ARM.Collect$$libinit$$00000015)
    .ARM.Collect$$libinit$$00000016          0x08000248   Section       10  libinit2.o(.ARM.Collect$$libinit$$00000016)
    .ARM.Collect$$libinit$$00000017          0x08000252   Section        0  libinit2.o(.ARM.Collect$$libinit$$00000017)
    .ARM.Collect$$libinit$$00000019          0x08000252   Section        0  libinit2.o(.ARM.Collect$$libinit$$00000019)
    .ARM.Collect$$libinit$$0000001B          0x08000252   Section        0  libinit2.o(.ARM.Collect$$libinit$$0000001B)
    .ARM.Collect$$libinit$$0000001D          0x08000252   Section        0  libinit2.o(.ARM.Collect$$libinit$$0000001D)
    .ARM.Collect$$libinit$$0000001F          0x08000252   Section        0  libinit2.o(.ARM.Collect$$libinit$$0000001F)
    .ARM.Collect$$libinit$$00000021          0x08000252   Section        0  libinit2.o(.ARM.Collect$$libinit$$00000021)
    .ARM.Collect$$libinit$$00000023          0x08000252   Section        0  libinit2.o(.ARM.Collect$$libinit$$00000023)
    .ARM.Collect$$libinit$$00000025          0x08000252   Section        0  libinit2.o(.ARM.Collect$$libinit$$00000025)
    .ARM.Collect$$libinit$$0000002C          0x08000252   Section        0  libinit2.o(.ARM.Collect$$libinit$$0000002C)
    .ARM.Collect$$libinit$$0000002E          0x08000252   Section        0  libinit2.o(.ARM.Collect$$libinit$$0000002E)
    .ARM.Collect$$libinit$$00000030          0x08000252   Section        0  libinit2.o(.ARM.Collect$$libinit$$00000030)
    .ARM.Collect$$libinit$$00000032          0x08000252   Section        0  libinit2.o(.ARM.Collect$$libinit$$00000032)
    .ARM.Collect$$libinit$$00000033          0x08000252   Section        2  libinit2.o(.ARM.Collect$$libinit$$00000033)
    .ARM.Collect$$libshutdown$$00000000      0x08000254   Section        2  libshutdown.o(.ARM.Collect$$libshutdown$$00000000)
    .ARM.Collect$$libshutdown$$00000003      0x08000256   Section        0  libshutdown2.o(.ARM.Collect$$libshutdown$$00000003)
    .ARM.Collect$$libshutdown$$00000006      0x08000256   Section        0  libshutdown2.o(.ARM.Collect$$libshutdown$$00000006)
    .ARM.Collect$$libshutdown$$00000009      0x08000256   Section        0  libshutdown2.o(.ARM.Collect$$libshutdown$$00000009)
    .ARM.Collect$$libshutdown$$0000000B      0x08000256   Section        0  libshutdown2.o(.ARM.Collect$$libshutdown$$0000000B)
    .ARM.Collect$$libshutdown$$0000000E      0x08000256   Section        0  libshutdown2.o(.ARM.Collect$$libshutdown$$0000000E)
    .ARM.Collect$$libshutdown$$0000000F      0x08000256   Section        2  libshutdown2.o(.ARM.Collect$$libshutdown$$0000000F)
    .ARM.Collect$$rtentry$$00000000          0x08000258   Section        0  __rtentry.o(.ARM.Collect$$rtentry$$00000000)
    .ARM.Collect$$rtentry$$00000002          0x08000258   Section        0  __rtentry2.o(.ARM.Collect$$rtentry$$00000002)
    .ARM.Collect$$rtentry$$00000004          0x08000258   Section        6  __rtentry4.o(.ARM.Collect$$rtentry$$00000004)
    .ARM.Collect$$rtentry$$00000009          0x0800025e   Section        0  __rtentry2.o(.ARM.Collect$$rtentry$$00000009)
    .ARM.Collect$$rtentry$$0000000A          0x0800025e   Section        4  __rtentry2.o(.ARM.Collect$$rtentry$$0000000A)
    .ARM.Collect$$rtentry$$0000000C          0x08000262   Section        0  __rtentry2.o(.ARM.Collect$$rtentry$$0000000C)
    .ARM.Collect$$rtentry$$0000000D          0x08000262   Section        8  __rtentry2.o(.ARM.Collect$$rtentry$$0000000D)
    .ARM.Collect$$rtexit$$00000000           0x0800026a   Section        2  rtexit.o(.ARM.Collect$$rtexit$$00000000)
    .ARM.Collect$$rtexit$$00000002           0x0800026c   Section        0  rtexit2.o(.ARM.Collect$$rtexit$$00000002)
    .ARM.Collect$$rtexit$$00000003           0x0800026c   Section        4  rtexit2.o(.ARM.Collect$$rtexit$$00000003)
    .ARM.Collect$$rtexit$$00000004           0x08000270   Section        6  rtexit2.o(.ARM.Collect$$rtexit$$00000004)
    .text                                    0x08000278   Section        0  main.o(.text)
    .text                                    0x0800062c   Section        0  stm32f10x_it.o(.text)
    .text                                    0x08000648   Section        0  system_stm32f10x.o(.text)
    SetSysClockTo72                          0x08000649   Thumb Code   214  system_stm32f10x.o(.text)
    SetSysClock                              0x0800071f   Thumb Code     8  system_stm32f10x.o(.text)
    .text                                    0x08000828   Section        0  led.o(.text)
    .text                                    0x08000874   Section        0  usart2.o(.text)
    .text                                    0x08000aec   Section        0  usart3.o(.text)
    .text                                    0x08001180   Section        0  key.o(.text)
    .text                                    0x08001278   Section        0  delay.o(.text)
    .text                                    0x0800134c   Section        0  usart.o(.text)
    .text                                    0x0800148c   Section       64  startup_stm32f10x_hd.o(.text)
    .text                                    0x080014cc   Section        0  stm32f10x_gpio.o(.text)
    .text                                    0x08001828   Section        0  stm32f10x_rcc.o(.text)
    .text                                    0x08001bcc   Section        0  stm32f10x_usart.o(.text)
    .text                                    0x08001fd4   Section        0  misc.o(.text)
    .text                                    0x080020b0   Section        0  stm32f10x_tim.o(.text)
    TI4_Config                               0x08002557   Thumb Code   130  stm32f10x_tim.o(.text)
    TI3_Config                               0x080025eb   Thumb Code   122  stm32f10x_tim.o(.text)
    TI2_Config                               0x0800267f   Thumb Code   130  stm32f10x_tim.o(.text)
    TI1_Config                               0x08002713   Thumb Code   108  stm32f10x_tim.o(.text)
    .text                                    0x08002ecc   Section        0  stm32f10x_dma.o(.text)
    .text                                    0x08003120   Section        2  use_no_semi_2.o(.text)
    .text                                    0x08003124   Section        0  c89vsprintf.o(.text)
    .text                                    0x08003148   Section        0  __2printf.o(.text)
    .text                                    0x08003160   Section        0  _printf_str.o(.text)
    .text                                    0x080031b4   Section        0  _printf_dec.o(.text)
    .text                                    0x0800322c   Section        0  __printf_flags_ss_wp.o(.text)
    .text                                    0x080033b4   Section        0  strstr.o(.text)
    .text                                    0x080033d8   Section        0  strlen.o(.text)
    .text                                    0x08003416   Section        0  strcat.o(.text)
    .text                                    0x0800342e   Section      100  rt_memcpy_w.o(.text)
    .text                                    0x08003492   Section        0  heapauxi.o(.text)
    .text                                    0x08003498   Section        2  use_no_semi.o(.text)
    .text                                    0x0800349a   Section        0  _printf_pad.o(.text)
    .text                                    0x080034e8   Section        0  _printf_truncate.o(.text)
    .text                                    0x0800350c   Section        0  _printf_intcommon.o(.text)
    .text                                    0x080035be   Section        0  _printf_charcount.o(.text)
    .text                                    0x080035e8   Section        0  _printf_char_common.o(.text)
    _printf_input_char                       0x080035e9   Thumb Code    10  _printf_char_common.o(.text)
    .text                                    0x08003618   Section        0  _sputc.o(.text)
    .text                                    0x08003622   Section        0  _printf_char.o(.text)
    .text                                    0x08003650   Section        0  _printf_char_file.o(.text)
    .text                                    0x08003674   Section        0  _printf_wctomb.o(.text)
    .text                                    0x08003730   Section        0  _printf_longlong_dec.o(.text)
    .text                                    0x080037ac   Section        0  _printf_oct_int_ll.o(.text)
    _printf_longlong_oct_internal            0x080037ad   Thumb Code     0  _printf_oct_int_ll.o(.text)
    .text                                    0x0800381c   Section        0  _printf_hex_int_ll_ptr.o(.text)
    _printf_hex_common                       0x0800381d   Thumb Code     0  _printf_hex_int_ll_ptr.o(.text)
    .text                                    0x080038b0   Section      138  lludiv10.o(.text)
    .text                                    0x0800393a   Section        0  _printf_fp_dec.o(.text)
    _fp_digits                               0x0800393d   Thumb Code   428  _printf_fp_dec.o(.text)
    .text                                    0x08003d54   Section        0  _printf_wchar.o(.text)
    .text                                    0x08003d80   Section        0  ferror.o(.text)
    .text                                    0x08003d88   Section        0  _wcrtomb.o(.text)
    .text                                    0x08003dc8   Section       74  sys_stackheap_outer.o(.text)
    .text                                    0x08003e14   Section       16  rt_ctype_table.o(.text)
    .text                                    0x08003e24   Section        8  rt_locale_intlibspace.o(.text)
    .text                                    0x08003e2c   Section        0  _printf_fp_infnan.o(.text)
    .text                                    0x08003eac   Section        0  bigflt0.o(.text)
    .text                                    0x08003f88   Section        0  exit.o(.text)
    .text                                    0x08003f94   Section        8  libspace.o(.text)
    .text                                    0x08003f9c   Section      128  strcmpv7m.o(.text)
    CL$$btod_d2e                             0x0800401c   Section       62  btod.o(CL$$btod_d2e)
    CL$$btod_d2e_denorm_low                  0x0800405a   Section       70  btod.o(CL$$btod_d2e_denorm_low)
    CL$$btod_d2e_norm_op1                    0x080040a0   Section       96  btod.o(CL$$btod_d2e_norm_op1)
    CL$$btod_div_common                      0x08004100   Section      824  btod.o(CL$$btod_div_common)
    CL$$btod_e2e                             0x08004438   Section      198  btod.o(CL$$btod_e2e)
    CL$$btod_ediv                            0x080044fe   Section       40  btod.o(CL$$btod_ediv)
    CL$$btod_emul                            0x08004526   Section       40  btod.o(CL$$btod_emul)
    CL$$btod_mult_common                     0x0800454e   Section      580  btod.o(CL$$btod_mult_common)
    i.__ARM_fpclassify                       0x08004792   Section        0  fpclassify.o(i.__ARM_fpclassify)
    i._is_digit                              0x080047ba   Section        0  __printf_wp.o(i._is_digit)
    locale$$code                             0x080047c8   Section       44  lc_numeric_c.o(locale$$code)
    locale$$code                             0x080047f4   Section       44  lc_ctype_c.o(locale$$code)
    x$fpl$d2f                                0x08004820   Section       98  d2f.o(x$fpl$d2f)
    x$fpl$dflt                               0x08004882   Section       46  dflt_clz.o(x$fpl$dflt)
    x$fpl$dmul                               0x080048b0   Section      340  dmul.o(x$fpl$dmul)
    x$fpl$dnaninf                            0x08004a04   Section      156  dnaninf.o(x$fpl$dnaninf)
    x$fpl$dretinf                            0x08004aa0   Section       12  dretinf.o(x$fpl$dretinf)
    x$fpl$fretinf                            0x08004aac   Section       10  fretinf.o(x$fpl$fretinf)
    x$fpl$printf1                            0x08004ab6   Section        4  printf1.o(x$fpl$printf1)
    .constdata                               0x08004aba   Section       17  __printf_flags_ss_wp.o(.constdata)
    x$fpl$usenofp                            0x08004aba   Section        0  usenofp.o(x$fpl$usenofp)
    maptable                                 0x08004aba   Data          17  __printf_flags_ss_wp.o(.constdata)
    .constdata                               0x08004acc   Section        8  _printf_wctomb.o(.constdata)
    initial_mbstate                          0x08004acc   Data           8  _printf_wctomb.o(.constdata)
    .constdata                               0x08004ad4   Section       40  _printf_hex_int_ll_ptr.o(.constdata)
    uc_hextab                                0x08004ad4   Data          20  _printf_hex_int_ll_ptr.o(.constdata)
    lc_hextab                                0x08004ae8   Data          20  _printf_hex_int_ll_ptr.o(.constdata)
    .constdata                               0x08004afc   Section      148  bigflt0.o(.constdata)
    tenpwrs_x                                0x08004afc   Data          60  bigflt0.o(.constdata)
    tenpwrs_i                                0x08004b38   Data          64  bigflt0.o(.constdata)
    locale$$data                             0x08004bb0   Section       28  lc_numeric_c.o(locale$$data)
    __lcnum_c_name                           0x08004bb4   Data           2  lc_numeric_c.o(locale$$data)
    __lcnum_c_start                          0x08004bbc   Data           0  lc_numeric_c.o(locale$$data)
    __lcnum_c_point                          0x08004bc8   Data           0  lc_numeric_c.o(locale$$data)
    __lcnum_c_thousands                      0x08004bca   Data           0  lc_numeric_c.o(locale$$data)
    __lcnum_c_grouping                       0x08004bcb   Data           0  lc_numeric_c.o(locale$$data)
    locale$$data                             0x08004bcc   Section      272  lc_ctype_c.o(locale$$data)
    __lcnum_c_end                            0x08004bcc   Data           0  lc_numeric_c.o(locale$$data)
    __lcctype_c_name                         0x08004bd0   Data           2  lc_ctype_c.o(locale$$data)
    __lcctype_c_start                        0x08004bd8   Data           0  lc_ctype_c.o(locale$$data)
    __lcctype_c_end                          0x08004cdc   Data           0  lc_ctype_c.o(locale$$data)
    .data                                    0x20000000   Section       20  system_stm32f10x.o(.data)
    .data                                    0x20000014   Section        2  usart2.o(.data)
    .data                                    0x20000018   Section       71  usart3.o(.data)
    .data                                    0x2000005f   Section        1  key.o(.data)
    key_up                                   0x2000005f   Data           1  key.o(.data)
    .data                                    0x20000060   Section        4  delay.o(.data)
    fac_us                                   0x20000060   Data           1  delay.o(.data)
    fac_ms                                   0x20000062   Data           2  delay.o(.data)
    .data                                    0x20000064   Section        6  usart.o(.data)
    .data                                    0x2000006a   Section       20  stm32f10x_rcc.o(.data)
    APBAHBPrescTable                         0x2000006a   Data          16  stm32f10x_rcc.o(.data)
    ADCPrescTable                            0x2000007a   Data           4  stm32f10x_rcc.o(.data)
    .bss                                     0x20000080   Section      400  usart2.o(.bss)
    .bss                                     0x20000210   Section      789  usart3.o(.bss)
    .bss                                     0x20000525   Section      200  usart.o(.bss)
    .bss                                     0x200005f0   Section       96  libspace.o(.bss)
    HEAP                                     0x20000650   Section      512  startup_stm32f10x_hd.o(HEAP)
    Heap_Mem                                 0x20000650   Data         512  startup_stm32f10x_hd.o(HEAP)
    STACK                                    0x20000850   Section     1024  startup_stm32f10x_hd.o(STACK)
    Stack_Mem                                0x20000850   Data        1024  startup_stm32f10x_hd.o(STACK)
    __initial_sp                             0x20000c50   Data           0  startup_stm32f10x_hd.o(STACK)

    Global Symbols

    Symbol Name                              Value     Ov Type        Size  Object(Section)

    BuildAttributes$$THM_ISAv4$P$D$K$B$S$PE$A:L22UL41UL21$X:L11$S22US41US21$IEEE1$IW$USESV6$~STKCKD$USESV7$~SHL$OTIME$ROPI$IEEEJ$EBA8$UX$STANDARDLIB$REQ8$PRES8$EABIv2 0x00000000   Number         0  anon$$obj.o ABSOLUTE
    __ARM_use_no_argv                        0x00000000   Number         0  main.o ABSOLUTE
    _printf_flags                            0x00000000   Number         0  printf_stubs.o ABSOLUTE
    _printf_return_value                     0x00000000   Number         0  printf_stubs.o ABSOLUTE
    _printf_sizespec                         0x00000000   Number         0  printf_stubs.o ABSOLUTE
    _printf_widthprec                        0x00000000   Number         0  printf_stubs.o ABSOLUTE
    __ARM_exceptions_init                     - Undefined Weak Reference
    __alloca_initialize                       - Undefined Weak Reference
    __arm_preinit_                            - Undefined Weak Reference
    __cpp_initialize__aeabi_                  - Undefined Weak Reference
    __cxa_finalize                            - Undefined Weak Reference
    __sigvec_lookup                           - Undefined Weak Reference
    _atexit_init                              - Undefined Weak Reference
    _call_atexit_fns                          - Undefined Weak Reference
    _clock_init                               - Undefined Weak Reference
    _fp_trap_init                             - Undefined Weak Reference
    _fp_trap_shutdown                         - Undefined Weak Reference
    _get_lc_collate                           - Undefined Weak Reference
    _get_lc_monetary                          - Undefined Weak Reference
    _get_lc_time                              - Undefined Weak Reference
    _getenv_init                              - Undefined Weak Reference
    _handle_redirection                       - Undefined Weak Reference
    _init_alloc                               - Undefined Weak Reference
    _init_user_alloc                          - Undefined Weak Reference
    _initio                                   - Undefined Weak Reference
    _mutex_acquire                            - Undefined Weak Reference
    _mutex_release                            - Undefined Weak Reference
    _printf_fp_hex                            - Undefined Weak Reference
    _printf_mbtowc                            - Undefined Weak Reference
    _printf_wc                                - Undefined Weak Reference
    _rand_init                                - Undefined Weak Reference
    _signal_finish                            - Undefined Weak Reference
    _signal_init                              - Undefined Weak Reference
    _terminate_alloc                          - Undefined Weak Reference
    _terminate_user_alloc                     - Undefined Weak Reference
    _terminateio                              - Undefined Weak Reference
    __Vectors_Size                           0x00000130   Number         0  startup_stm32f10x_hd.o ABSOLUTE
    __Vectors                                0x08000000   Data           4  startup_stm32f10x_hd.o(RESET)
    __Vectors_End                            0x08000130   Data           0  startup_stm32f10x_hd.o(RESET)
    __main                                   0x08000131   Thumb Code     8  __main.o(!!!main)
    __scatterload                            0x08000139   Thumb Code     0  __scatter.o(!!!scatter)
    __scatterload_rt2                        0x08000139   Thumb Code    44  __scatter.o(!!!scatter)
    __scatterload_rt2_thumb_only             0x08000139   Thumb Code     0  __scatter.o(!!!scatter)
    __scatterload_null                       0x08000147   Thumb Code     0  __scatter.o(!!!scatter)
    __scatterload_copy                       0x0800016d   Thumb Code    26  __scatter_copy.o(!!handler_copy)
    __scatterload_zeroinit                   0x08000189   Thumb Code    28  __scatter_zi.o(!!handler_zi)
    _printf_n                                0x080001a5   Thumb Code     0  _printf_n.o(.ARM.Collect$$_printf_percent$$00000001)
    _printf_percent                          0x080001a5   Thumb Code     0  _printf_percent.o(.ARM.Collect$$_printf_percent$$00000000)
    _printf_p                                0x080001ab   Thumb Code     0  _printf_p.o(.ARM.Collect$$_printf_percent$$00000002)
    _printf_f                                0x080001b1   Thumb Code     0  _printf_f.o(.ARM.Collect$$_printf_percent$$00000003)
    _printf_e                                0x080001b7   Thumb Code     0  _printf_e.o(.ARM.Collect$$_printf_percent$$00000004)
    _printf_g                                0x080001bd   Thumb Code     0  _printf_g.o(.ARM.Collect$$_printf_percent$$00000005)
    _printf_a                                0x080001c3   Thumb Code     0  _printf_a.o(.ARM.Collect$$_printf_percent$$00000006)
    _printf_ll                               0x080001c9   Thumb Code     0  _printf_ll.o(.ARM.Collect$$_printf_percent$$00000007)
    _printf_i                                0x080001d3   Thumb Code     0  _printf_i.o(.ARM.Collect$$_printf_percent$$00000008)
    _printf_d                                0x080001d9   Thumb Code     0  _printf_d.o(.ARM.Collect$$_printf_percent$$00000009)
    _printf_u                                0x080001df   Thumb Code     0  _printf_u.o(.ARM.Collect$$_printf_percent$$0000000A)
    _printf_o                                0x080001e5   Thumb Code     0  _printf_o.o(.ARM.Collect$$_printf_percent$$0000000B)
    _printf_x                                0x080001eb   Thumb Code     0  _printf_x.o(.ARM.Collect$$_printf_percent$$0000000C)
    _printf_lli                              0x080001f1   Thumb Code     0  _printf_lli.o(.ARM.Collect$$_printf_percent$$0000000D)
    _printf_lld                              0x080001f7   Thumb Code     0  _printf_lld.o(.ARM.Collect$$_printf_percent$$0000000E)
    _printf_llu                              0x080001fd   Thumb Code     0  _printf_llu.o(.ARM.Collect$$_printf_percent$$0000000F)
    _printf_llo                              0x08000203   Thumb Code     0  _printf_llo.o(.ARM.Collect$$_printf_percent$$00000010)
    _printf_llx                              0x08000209   Thumb Code     0  _printf_llx.o(.ARM.Collect$$_printf_percent$$00000011)
    _printf_l                                0x0800020f   Thumb Code     0  _printf_l.o(.ARM.Collect$$_printf_percent$$00000012)
    _printf_c                                0x08000219   Thumb Code     0  _printf_c.o(.ARM.Collect$$_printf_percent$$00000013)
    _printf_s                                0x0800021f   Thumb Code     0  _printf_s.o(.ARM.Collect$$_printf_percent$$00000014)
    _printf_lc                               0x08000225   Thumb Code     0  _printf_lc.o(.ARM.Collect$$_printf_percent$$00000015)
    _printf_ls                               0x0800022b   Thumb Code     0  _printf_ls.o(.ARM.Collect$$_printf_percent$$00000016)
    _printf_percent_end                      0x08000231   Thumb Code     0  _printf_percent_end.o(.ARM.Collect$$_printf_percent$$00000017)
    __rt_lib_init                            0x08000235   Thumb Code     0  libinit.o(.ARM.Collect$$libinit$$00000000)
    __rt_lib_init_fp_1                       0x08000237   Thumb Code     0  libinit2.o(.ARM.Collect$$libinit$$00000002)
    __rt_lib_init_heap_1                     0x08000237   Thumb Code     0  libinit2.o(.ARM.Collect$$libinit$$0000000A)
    __rt_lib_init_lc_common                  0x08000237   Thumb Code     0  libinit2.o(.ARM.Collect$$libinit$$0000000F)
    __rt_lib_init_preinit_1                  0x08000237   Thumb Code     0  libinit2.o(.ARM.Collect$$libinit$$00000004)
    __rt_lib_init_rand_1                     0x08000237   Thumb Code     0  libinit2.o(.ARM.Collect$$libinit$$0000000E)
    __rt_lib_init_user_alloc_1               0x08000237   Thumb Code     0  libinit2.o(.ARM.Collect$$libinit$$0000000C)
    __rt_lib_init_lc_collate_1               0x0800023d   Thumb Code     0  libinit2.o(.ARM.Collect$$libinit$$00000011)
    __rt_lib_init_lc_ctype_2                 0x0800023d   Thumb Code     0  libinit2.o(.ARM.Collect$$libinit$$00000012)
    __rt_lib_init_lc_ctype_1                 0x08000249   Thumb Code     0  libinit2.o(.ARM.Collect$$libinit$$00000013)
    __rt_lib_init_lc_monetary_1              0x08000249   Thumb Code     0  libinit2.o(.ARM.Collect$$libinit$$00000015)
    __rt_lib_init_lc_numeric_2               0x08000249   Thumb Code     0  libinit2.o(.ARM.Collect$$libinit$$00000016)
    __rt_lib_init_alloca_1                   0x08000253   Thumb Code     0  libinit2.o(.ARM.Collect$$libinit$$0000002E)
    __rt_lib_init_argv_1                     0x08000253   Thumb Code     0  libinit2.o(.ARM.Collect$$libinit$$0000002C)
    __rt_lib_init_atexit_1                   0x08000253   Thumb Code     0  libinit2.o(.ARM.Collect$$libinit$$0000001B)
    __rt_lib_init_clock_1                    0x08000253   Thumb Code     0  libinit2.o(.ARM.Collect$$libinit$$00000021)
    __rt_lib_init_cpp_1                      0x08000253   Thumb Code     0  libinit2.o(.ARM.Collect$$libinit$$00000032)
    __rt_lib_init_exceptions_1               0x08000253   Thumb Code     0  libinit2.o(.ARM.Collect$$libinit$$00000030)
    __rt_lib_init_fp_trap_1                  0x08000253   Thumb Code     0  libinit2.o(.ARM.Collect$$libinit$$0000001F)
    __rt_lib_init_getenv_1                   0x08000253   Thumb Code     0  libinit2.o(.ARM.Collect$$libinit$$00000023)
    __rt_lib_init_lc_numeric_1               0x08000253   Thumb Code     0  libinit2.o(.ARM.Collect$$libinit$$00000017)
    __rt_lib_init_lc_time_1                  0x08000253   Thumb Code     0  libinit2.o(.ARM.Collect$$libinit$$00000019)
    __rt_lib_init_return                     0x08000253   Thumb Code     0  libinit2.o(.ARM.Collect$$libinit$$00000033)
    __rt_lib_init_signal_1                   0x08000253   Thumb Code     0  libinit2.o(.ARM.Collect$$libinit$$0000001D)
    __rt_lib_init_stdio_1                    0x08000253   Thumb Code     0  libinit2.o(.ARM.Collect$$libinit$$00000025)
    __rt_lib_shutdown                        0x08000255   Thumb Code     0  libshutdown.o(.ARM.Collect$$libshutdown$$00000000)
    __rt_lib_shutdown_fp_trap_1              0x08000257   Thumb Code     0  libshutdown2.o(.ARM.Collect$$libshutdown$$00000006)
    __rt_lib_shutdown_heap_1                 0x08000257   Thumb Code     0  libshutdown2.o(.ARM.Collect$$libshutdown$$0000000E)
    __rt_lib_shutdown_return                 0x08000257   Thumb Code     0  libshutdown2.o(.ARM.Collect$$libshutdown$$0000000F)
    __rt_lib_shutdown_signal_1               0x08000257   Thumb Code     0  libshutdown2.o(.ARM.Collect$$libshutdown$$00000009)
    __rt_lib_shutdown_stdio_1                0x08000257   Thumb Code     0  libshutdown2.o(.ARM.Collect$$libshutdown$$00000003)
    __rt_lib_shutdown_user_alloc_1           0x08000257   Thumb Code     0  libshutdown2.o(.ARM.Collect$$libshutdown$$0000000B)
    __rt_entry                               0x08000259   Thumb Code     0  __rtentry.o(.ARM.Collect$$rtentry$$00000000)
    __rt_entry_presh_1                       0x08000259   Thumb Code     0  __rtentry2.o(.ARM.Collect$$rtentry$$00000002)
    __rt_entry_sh                            0x08000259   Thumb Code     0  __rtentry4.o(.ARM.Collect$$rtentry$$00000004)
    __rt_entry_li                            0x0800025f   Thumb Code     0  __rtentry2.o(.ARM.Collect$$rtentry$$0000000A)
    __rt_entry_postsh_1                      0x0800025f   Thumb Code     0  __rtentry2.o(.ARM.Collect$$rtentry$$00000009)
    __rt_entry_main                          0x08000263   Thumb Code     0  __rtentry2.o(.ARM.Collect$$rtentry$$0000000D)
    __rt_entry_postli_1                      0x08000263   Thumb Code     0  __rtentry2.o(.ARM.Collect$$rtentry$$0000000C)
    __rt_exit                                0x0800026b   Thumb Code     0  rtexit.o(.ARM.Collect$$rtexit$$00000000)
    __rt_exit_ls                             0x0800026d   Thumb Code     0  rtexit2.o(.ARM.Collect$$rtexit$$00000003)
    __rt_exit_prels_1                        0x0800026d   Thumb Code     0  rtexit2.o(.ARM.Collect$$rtexit$$00000002)
    __rt_exit_exit                           0x08000271   Thumb Code     0  rtexit2.o(.ARM.Collect$$rtexit$$00000004)
    main                                     0x08000279   Thumb Code   556  main.o(.text)
    NMI_Handler                              0x0800062d   Thumb Code     2  stm32f10x_it.o(.text)
    HardFault_Handler                        0x0800062f   Thumb Code     4  stm32f10x_it.o(.text)
    MemManage_Handler                        0x08000633   Thumb Code     4  stm32f10x_it.o(.text)
    BusFault_Handler                         0x08000637   Thumb Code     4  stm32f10x_it.o(.text)
    UsageFault_Handler                       0x0800063b   Thumb Code     4  stm32f10x_it.o(.text)
    SVC_Handler                              0x0800063f   Thumb Code     2  stm32f10x_it.o(.text)
    DebugMon_Handler                         0x08000641   Thumb Code     2  stm32f10x_it.o(.text)
    PendSV_Handler                           0x08000643   Thumb Code     2  stm32f10x_it.o(.text)
    SysTick_Handler                          0x08000645   Thumb Code     2  stm32f10x_it.o(.text)
    SystemInit                               0x08000727   Thumb Code    78  system_stm32f10x.o(.text)
    SystemCoreClockUpdate                    0x08000775   Thumb Code   142  system_stm32f10x.o(.text)
    LED_Init                                 0x08000829   Thumb Code    68  led.o(.text)
    TIM4_Set                                 0x08000875   Thumb Code    34  usart2.o(.text)
    USART2_IRQHandler                        0x08000897   Thumb Code    82  usart2.o(.text)
    TIM4_Init                                0x080008e9   Thumb Code    82  usart2.o(.text)
    UART_DMA_Config                          0x0800093b   Thumb Code    72  usart2.o(.text)
    USART2_Init                              0x08000983   Thumb Code   204  usart2.o(.text)
    UART_DMA_Enable                          0x08000a4f   Thumb Code    32  usart2.o(.text)
    u2_printf                                0x08000a6f   Thumb Code    56  usart2.o(.text)
    TIM4_IRQHandler                          0x08000aa7   Thumb Code    40  usart2.o(.text)
    itoa                                     0x08000aed   Thumb Code   154  usart3.o(.text)
    USART3_IRQHandler                        0x08000b87   Thumb Code   102  usart3.o(.text)
    calccrc                                  0x08000bed   Thumb Code    42  usart3.o(.text)
    chkcrc                                   0x08000c17   Thumb Code    54  usart3.o(.text)
    read_data                                0x08000c4d   Thumb Code   138  usart3.o(.text)
    read_data1                               0x08000cd7   Thumb Code   150  usart3.o(.text)
    Analysis_data                            0x08000d6d   Thumb Code   766  usart3.o(.text)
    wifi_null                                0x0800106b   Thumb Code    38  usart3.o(.text)
    usart3_init                              0x08001091   Thumb Code   182  usart3.o(.text)
    u3_printf                                0x08001147   Thumb Code     2  usart3.o(.text)
    KEY_Init                                 0x08001181   Thumb Code    80  key.o(.text)
    KEY_Scan                                 0x080011d1   Thumb Code   150  key.o(.text)
    delay_init                               0x08001279   Thumb Code    50  delay.o(.text)
    delay_us                                 0x080012ab   Thumb Code    72  delay.o(.text)
    delay_ms                                 0x080012f3   Thumb Code    72  delay.o(.text)
    _sys_exit                                0x0800134d   Thumb Code     4  usart.o(.text)
    fputc                                    0x08001351   Thumb Code    24  usart.o(.text)
    uart_init                                0x08001369   Thumb Code   152  usart.o(.text)
    USART1_IRQHandler                        0x08001401   Thumb Code   122  usart.o(.text)
    Reset_Handler                            0x0800148d   Thumb Code     8  startup_stm32f10x_hd.o(.text)
    ADC1_2_IRQHandler                        0x080014a7   Thumb Code     0  startup_stm32f10x_hd.o(.text)
    ADC3_IRQHandler                          0x080014a7   Thumb Code     0  startup_stm32f10x_hd.o(.text)
    CAN1_RX1_IRQHandler                      0x080014a7   Thumb Code     0  startup_stm32f10x_hd.o(.text)
    CAN1_SCE_IRQHandler                      0x080014a7   Thumb Code     0  startup_stm32f10x_hd.o(.text)
    DMA1_Channel1_IRQHandler                 0x080014a7   Thumb Code     0  startup_stm32f10x_hd.o(.text)
    DMA1_Channel2_IRQHandler                 0x080014a7   Thumb Code     0  startup_stm32f10x_hd.o(.text)
    DMA1_Channel3_IRQHandler                 0x080014a7   Thumb Code     0  startup_stm32f10x_hd.o(.text)
    DMA1_Channel4_IRQHandler                 0x080014a7   Thumb Code     0  startup_stm32f10x_hd.o(.text)
    DMA1_Channel5_IRQHandler                 0x080014a7   Thumb Code     0  startup_stm32f10x_hd.o(.text)
    DMA1_Channel6_IRQHandler                 0x080014a7   Thumb Code     0  startup_stm32f10x_hd.o(.text)
    DMA1_Channel7_IRQHandler                 0x080014a7   Thumb Code     0  startup_stm32f10x_hd.o(.text)
    DMA2_Channel1_IRQHandler                 0x080014a7   Thumb Code     0  startup_stm32f10x_hd.o(.text)
    DMA2_Channel2_IRQHandler                 0x080014a7   Thumb Code     0  startup_stm32f10x_hd.o(.text)
    DMA2_Channel3_IRQHandler                 0x080014a7   Thumb Code     0  startup_stm32f10x_hd.o(.text)
    DMA2_Channel4_5_IRQHandler               0x080014a7   Thumb Code     0  startup_stm32f10x_hd.o(.text)
    EXTI0_IRQHandler                         0x080014a7   Thumb Code     0  startup_stm32f10x_hd.o(.text)
    EXTI15_10_IRQHandler                     0x080014a7   Thumb Code     0  startup_stm32f10x_hd.o(.text)
    EXTI1_IRQHandler                         0x080014a7   Thumb Code     0  startup_stm32f10x_hd.o(.text)
    EXTI2_IRQHandler                         0x080014a7   Thumb Code     0  startup_stm32f10x_hd.o(.text)
    EXTI3_IRQHandler                         0x080014a7   Thumb Code     0  startup_stm32f10x_hd.o(.text)
    EXTI4_IRQHandler                         0x080014a7   Thumb Code     0  startup_stm32f10x_hd.o(.text)
    EXTI9_5_IRQHandler                       0x080014a7   Thumb Code     0  startup_stm32f10x_hd.o(.text)
    FLASH_IRQHandler                         0x080014a7   Thumb Code     0  startup_stm32f10x_hd.o(.text)
    FSMC_IRQHandler                          0x080014a7   Thumb Code     0  startup_stm32f10x_hd.o(.text)
    I2C1_ER_IRQHandler                       0x080014a7   Thumb Code     0  startup_stm32f10x_hd.o(.text)
    I2C1_EV_IRQHandler                       0x080014a7   Thumb Code     0  startup_stm32f10x_hd.o(.text)
    I2C2_ER_IRQHandler                       0x080014a7   Thumb Code     0  startup_stm32f10x_hd.o(.text)
    I2C2_EV_IRQHandler                       0x080014a7   Thumb Code     0  startup_stm32f10x_hd.o(.text)
    PVD_IRQHandler                           0x080014a7   Thumb Code     0  startup_stm32f10x_hd.o(.text)
    RCC_IRQHandler                           0x080014a7   Thumb Code     0  startup_stm32f10x_hd.o(.text)
    RTCAlarm_IRQHandler                      0x080014a7   Thumb Code     0  startup_stm32f10x_hd.o(.text)
    RTC_IRQHandler                           0x080014a7   Thumb Code     0  startup_stm32f10x_hd.o(.text)
    SDIO_IRQHandler                          0x080014a7   Thumb Code     0  startup_stm32f10x_hd.o(.text)
    SPI1_IRQHandler                          0x080014a7   Thumb Code     0  startup_stm32f10x_hd.o(.text)
    SPI2_IRQHandler                          0x080014a7   Thumb Code     0  startup_stm32f10x_hd.o(.text)
    SPI3_IRQHandler                          0x080014a7   Thumb Code     0  startup_stm32f10x_hd.o(.text)
    TAMPER_IRQHandler                        0x080014a7   Thumb Code     0  startup_stm32f10x_hd.o(.text)
    TIM1_BRK_IRQHandler                      0x080014a7   Thumb Code     0  startup_stm32f10x_hd.o(.text)
    TIM1_CC_IRQHandler                       0x080014a7   Thumb Code     0  startup_stm32f10x_hd.o(.text)
    TIM1_TRG_COM_IRQHandler                  0x080014a7   Thumb Code     0  startup_stm32f10x_hd.o(.text)
    TIM1_UP_IRQHandler                       0x080014a7   Thumb Code     0  startup_stm32f10x_hd.o(.text)
    TIM2_IRQHandler                          0x080014a7   Thumb Code     0  startup_stm32f10x_hd.o(.text)
    TIM3_IRQHandler                          0x080014a7   Thumb Code     0  startup_stm32f10x_hd.o(.text)
    TIM5_IRQHandler                          0x080014a7   Thumb Code     0  startup_stm32f10x_hd.o(.text)
    TIM6_IRQHandler                          0x080014a7   Thumb Code     0  startup_stm32f10x_hd.o(.text)
    TIM7_IRQHandler                          0x080014a7   Thumb Code     0  startup_stm32f10x_hd.o(.text)
    TIM8_BRK_IRQHandler                      0x080014a7   Thumb Code     0  startup_stm32f10x_hd.o(.text)
    TIM8_CC_IRQHandler                       0x080014a7   Thumb Code     0  startup_stm32f10x_hd.o(.text)
    TIM8_TRG_COM_IRQHandler                  0x080014a7   Thumb Code     0  startup_stm32f10x_hd.o(.text)
    TIM8_UP_IRQHandler                       0x080014a7   Thumb Code     0  startup_stm32f10x_hd.o(.text)
    UART4_IRQHandler                         0x080014a7   Thumb Code     0  startup_stm32f10x_hd.o(.text)
    UART5_IRQHandler                         0x080014a7   Thumb Code     0  startup_stm32f10x_hd.o(.text)
    USBWakeUp_IRQHandler                     0x080014a7   Thumb Code     0  startup_stm32f10x_hd.o(.text)
    USB_HP_CAN1_TX_IRQHandler                0x080014a7   Thumb Code     0  startup_stm32f10x_hd.o(.text)
    USB_LP_CAN1_RX0_IRQHandler               0x080014a7   Thumb Code     0  startup_stm32f10x_hd.o(.text)
    WWDG_IRQHandler                          0x080014a7   Thumb Code     0  startup_stm32f10x_hd.o(.text)
    __user_initial_stackheap                 0x080014a9   Thumb Code     0  startup_stm32f10x_hd.o(.text)
    GPIO_DeInit                              0x080014cd   Thumb Code   172  stm32f10x_gpio.o(.text)
    GPIO_AFIODeInit                          0x08001579   Thumb Code    20  stm32f10x_gpio.o(.text)
    GPIO_Init                                0x0800158d   Thumb Code   278  stm32f10x_gpio.o(.text)
    GPIO_StructInit                          0x080016a3   Thumb Code    16  stm32f10x_gpio.o(.text)
    GPIO_ReadInputDataBit                    0x080016b3   Thumb Code    18  stm32f10x_gpio.o(.text)
    GPIO_ReadInputData                       0x080016c5   Thumb Code     8  stm32f10x_gpio.o(.text)
    GPIO_ReadOutputDataBit                   0x080016cd   Thumb Code    18  stm32f10x_gpio.o(.text)
    GPIO_ReadOutputData                      0x080016df   Thumb Code     8  stm32f10x_gpio.o(.text)
    GPIO_SetBits                             0x080016e7   Thumb Code     4  stm32f10x_gpio.o(.text)
    GPIO_ResetBits                           0x080016eb   Thumb Code     4  stm32f10x_gpio.o(.text)
    GPIO_WriteBit                            0x080016ef   Thumb Code    10  stm32f10x_gpio.o(.text)
    GPIO_Write                               0x080016f9   Thumb Code     4  stm32f10x_gpio.o(.text)
    GPIO_PinLockConfig                       0x080016fd   Thumb Code    18  stm32f10x_gpio.o(.text)
    GPIO_EventOutputConfig                   0x0800170f   Thumb Code    26  stm32f10x_gpio.o(.text)
    GPIO_EventOutputCmd                      0x08001729   Thumb Code     6  stm32f10x_gpio.o(.text)
    GPIO_PinRemapConfig                      0x0800172f   Thumb Code   138  stm32f10x_gpio.o(.text)
    GPIO_EXTILineConfig                      0x080017b9   Thumb Code    66  stm32f10x_gpio.o(.text)
    GPIO_ETH_MediaInterfaceConfig            0x080017fb   Thumb Code     8  stm32f10x_gpio.o(.text)
    RCC_DeInit                               0x08001829   Thumb Code    64  stm32f10x_rcc.o(.text)
    RCC_HSEConfig                            0x08001869   Thumb Code    70  stm32f10x_rcc.o(.text)
    RCC_GetFlagStatus                        0x080018af   Thumb Code    56  stm32f10x_rcc.o(.text)
    RCC_WaitForHSEStartUp                    0x080018e7   Thumb Code    56  stm32f10x_rcc.o(.text)
    RCC_AdjustHSICalibrationValue            0x0800191f   Thumb Code    20  stm32f10x_rcc.o(.text)
    RCC_HSICmd                               0x08001933   Thumb Code     6  stm32f10x_rcc.o(.text)
    RCC_PLLConfig                            0x08001939   Thumb Code    24  stm32f10x_rcc.o(.text)
    RCC_PLLCmd                               0x08001951   Thumb Code     6  stm32f10x_rcc.o(.text)
    RCC_SYSCLKConfig                         0x08001957   Thumb Code    18  stm32f10x_rcc.o(.text)
    RCC_GetSYSCLKSource                      0x08001969   Thumb Code    10  stm32f10x_rcc.o(.text)
    RCC_HCLKConfig                           0x08001973   Thumb Code    18  stm32f10x_rcc.o(.text)
    RCC_PCLK1Config                          0x08001985   Thumb Code    18  stm32f10x_rcc.o(.text)
    RCC_PCLK2Config                          0x08001997   Thumb Code    20  stm32f10x_rcc.o(.text)
    RCC_ITConfig                             0x080019ab   Thumb Code    26  stm32f10x_rcc.o(.text)
    RCC_USBCLKConfig                         0x080019c5   Thumb Code     8  stm32f10x_rcc.o(.text)
    RCC_ADCCLKConfig                         0x080019cd   Thumb Code    18  stm32f10x_rcc.o(.text)
    RCC_LSEConfig                            0x080019df   Thumb Code    50  stm32f10x_rcc.o(.text)
    RCC_LSICmd                               0x08001a11   Thumb Code     6  stm32f10x_rcc.o(.text)
    RCC_RTCCLKConfig                         0x08001a17   Thumb Code    12  stm32f10x_rcc.o(.text)
    RCC_RTCCLKCmd                            0x08001a23   Thumb Code     8  stm32f10x_rcc.o(.text)
    RCC_GetClocksFreq                        0x08001a2b   Thumb Code   192  stm32f10x_rcc.o(.text)
    RCC_AHBPeriphClockCmd                    0x08001aeb   Thumb Code    26  stm32f10x_rcc.o(.text)
    RCC_APB2PeriphClockCmd                   0x08001b05   Thumb Code    26  stm32f10x_rcc.o(.text)
    RCC_APB1PeriphClockCmd                   0x08001b1f   Thumb Code    26  stm32f10x_rcc.o(.text)
    RCC_APB2PeriphResetCmd                   0x08001b39   Thumb Code    26  stm32f10x_rcc.o(.text)
    RCC_APB1PeriphResetCmd                   0x08001b53   Thumb Code    26  stm32f10x_rcc.o(.text)
    RCC_BackupResetCmd                       0x08001b6d   Thumb Code     8  stm32f10x_rcc.o(.text)
    RCC_ClockSecuritySystemCmd               0x08001b75   Thumb Code     6  stm32f10x_rcc.o(.text)
    RCC_MCOConfig                            0x08001b7b   Thumb Code     6  stm32f10x_rcc.o(.text)
    RCC_ClearFlag                            0x08001b81   Thumb Code    14  stm32f10x_rcc.o(.text)
    RCC_GetITStatus                          0x08001b8f   Thumb Code    20  stm32f10x_rcc.o(.text)
    RCC_ClearITPendingBit                    0x08001ba3   Thumb Code     6  stm32f10x_rcc.o(.text)
    USART_DeInit                             0x08001bcd   Thumb Code   134  stm32f10x_usart.o(.text)
    USART_Init                               0x08001c53   Thumb Code   210  stm32f10x_usart.o(.text)
    USART_StructInit                         0x08001d25   Thumb Code    24  stm32f10x_usart.o(.text)
    USART_ClockInit                          0x08001d3d   Thumb Code    34  stm32f10x_usart.o(.text)
    USART_ClockStructInit                    0x08001d5f   Thumb Code    12  stm32f10x_usart.o(.text)
    USART_Cmd                                0x08001d6b   Thumb Code    24  stm32f10x_usart.o(.text)
    USART_ITConfig                           0x08001d83   Thumb Code    74  stm32f10x_usart.o(.text)
    USART_DMACmd                             0x08001dcd   Thumb Code    18  stm32f10x_usart.o(.text)
    USART_SetAddress                         0x08001ddf   Thumb Code    18  stm32f10x_usart.o(.text)
    USART_WakeUpConfig                       0x08001df1   Thumb Code    18  stm32f10x_usart.o(.text)
    USART_ReceiverWakeUpCmd                  0x08001e03   Thumb Code    24  stm32f10x_usart.o(.text)
    USART_LINBreakDetectLengthConfig         0x08001e1b   Thumb Code    18  stm32f10x_usart.o(.text)
    USART_LINCmd                             0x08001e2d   Thumb Code    24  stm32f10x_usart.o(.text)
    USART_SendData                           0x08001e45   Thumb Code     8  stm32f10x_usart.o(.text)
    USART_ReceiveData                        0x08001e4d   Thumb Code    10  stm32f10x_usart.o(.text)
    USART_SendBreak                          0x08001e57   Thumb Code    10  stm32f10x_usart.o(.text)
    USART_SetGuardTime                       0x08001e61   Thumb Code    16  stm32f10x_usart.o(.text)
    USART_SetPrescaler                       0x08001e71   Thumb Code    16  stm32f10x_usart.o(.text)
    USART_SmartCardCmd                       0x08001e81   Thumb Code    24  stm32f10x_usart.o(.text)
    USART_SmartCardNACKCmd                   0x08001e99   Thumb Code    24  stm32f10x_usart.o(.text)
    USART_HalfDuplexCmd                      0x08001eb1   Thumb Code    24  stm32f10x_usart.o(.text)
    USART_OverSampling8Cmd                   0x08001ec9   Thumb Code    22  stm32f10x_usart.o(.text)
    USART_OneBitMethodCmd                    0x08001edf   Thumb Code    24  stm32f10x_usart.o(.text)
    USART_IrDAConfig                         0x08001ef7   Thumb Code    18  stm32f10x_usart.o(.text)
    USART_IrDACmd                            0x08001f09   Thumb Code    24  stm32f10x_usart.o(.text)
    USART_GetFlagStatus                      0x08001f21   Thumb Code    26  stm32f10x_usart.o(.text)
    USART_ClearFlag                          0x08001f3b   Thumb Code    18  stm32f10x_usart.o(.text)
    USART_GetITStatus                        0x08001f4d   Thumb Code    84  stm32f10x_usart.o(.text)
    USART_ClearITPendingBit                  0x08001fa1   Thumb Code    52  stm32f10x_usart.o(.text)
    NVIC_PriorityGroupConfig                 0x08001fd5   Thumb Code    10  misc.o(.text)
    NVIC_Init                                0x08001fdf   Thumb Code   100  misc.o(.text)
    NVIC_SetVectorTable                      0x08002043   Thumb Code    14  misc.o(.text)
    NVIC_SystemLPConfig                      0x08002051   Thumb Code    34  misc.o(.text)
    SysTick_CLKSourceConfig                  0x08002073   Thumb Code    40  misc.o(.text)
    TIM_DeInit                               0x080020b1   Thumb Code   424  stm32f10x_tim.o(.text)
    TIM_TimeBaseInit                         0x08002259   Thumb Code   122  stm32f10x_tim.o(.text)
    TIM_OC1Init                              0x080022d3   Thumb Code   132  stm32f10x_tim.o(.text)
    TIM_OC2Init                              0x08002357   Thumb Code   154  stm32f10x_tim.o(.text)
    TIM_OC3Init                              0x080023f1   Thumb Code   150  stm32f10x_tim.o(.text)
    TIM_OC4Init                              0x08002487   Thumb Code   182  stm32f10x_tim.o(.text)
    TIM_SetIC4Prescaler                      0x0800253d   Thumb Code    26  stm32f10x_tim.o(.text)
    TIM_SetIC3Prescaler                      0x080025d9   Thumb Code    18  stm32f10x_tim.o(.text)
    TIM_SetIC2Prescaler                      0x08002665   Thumb Code    26  stm32f10x_tim.o(.text)
    TIM_SetIC1Prescaler                      0x08002701   Thumb Code    18  stm32f10x_tim.o(.text)
    TIM_ICInit                               0x0800277f   Thumb Code   150  stm32f10x_tim.o(.text)
    TIM_PWMIConfig                           0x08002815   Thumb Code   124  stm32f10x_tim.o(.text)
    TIM_BDTRConfig                           0x08002891   Thumb Code    32  stm32f10x_tim.o(.text)
    TIM_TimeBaseStructInit                   0x080028b1   Thumb Code    18  stm32f10x_tim.o(.text)
    TIM_OCStructInit                         0x080028c3   Thumb Code    20  stm32f10x_tim.o(.text)
    TIM_ICStructInit                         0x080028d7   Thumb Code    18  stm32f10x_tim.o(.text)
    TIM_BDTRStructInit                       0x080028e9   Thumb Code    40  stm32f10x_tim.o(.text)
    TIM_Cmd                                  0x08002911   Thumb Code    24  stm32f10x_tim.o(.text)
    TIM_CtrlPWMOutputs                       0x08002929   Thumb Code    30  stm32f10x_tim.o(.text)
    TIM_ITConfig                             0x08002947   Thumb Code    18  stm32f10x_tim.o(.text)
    TIM_GenerateEvent                        0x08002959   Thumb Code     4  stm32f10x_tim.o(.text)
    TIM_DMAConfig                            0x0800295d   Thumb Code    10  stm32f10x_tim.o(.text)
    TIM_DMACmd                               0x08002967   Thumb Code    18  stm32f10x_tim.o(.text)
    TIM_InternalClockConfig                  0x08002979   Thumb Code    12  stm32f10x_tim.o(.text)
    TIM_SelectInputTrigger                   0x08002985   Thumb Code    18  stm32f10x_tim.o(.text)
    TIM_ITRxExternalClockConfig              0x08002997   Thumb Code    24  stm32f10x_tim.o(.text)
    TIM_TIxExternalClockConfig               0x080029af   Thumb Code    62  stm32f10x_tim.o(.text)
    TIM_ETRConfig                            0x080029ed   Thumb Code    28  stm32f10x_tim.o(.text)
    TIM_ETRClockMode1Config                  0x08002a09   Thumb Code    54  stm32f10x_tim.o(.text)
    TIM_ETRClockMode2Config                  0x08002a3f   Thumb Code    32  stm32f10x_tim.o(.text)
    TIM_PrescalerConfig                      0x08002a5f   Thumb Code     6  stm32f10x_tim.o(.text)
    TIM_CounterModeConfig                    0x08002a65   Thumb Code    18  stm32f10x_tim.o(.text)
    TIM_EncoderInterfaceConfig               0x08002a77   Thumb Code    66  stm32f10x_tim.o(.text)
    TIM_ForcedOC1Config                      0x08002ab9   Thumb Code    18  stm32f10x_tim.o(.text)
    TIM_ForcedOC2Config                      0x08002acb   Thumb Code    26  stm32f10x_tim.o(.text)
    TIM_ForcedOC3Config                      0x08002ae5   Thumb Code    18  stm32f10x_tim.o(.text)
    TIM_ForcedOC4Config                      0x08002af7   Thumb Code    26  stm32f10x_tim.o(.text)
    TIM_ARRPreloadConfig                     0x08002b11   Thumb Code    24  stm32f10x_tim.o(.text)
    TIM_SelectCOM                            0x08002b29   Thumb Code    24  stm32f10x_tim.o(.text)
    TIM_SelectCCDMA                          0x08002b41   Thumb Code    24  stm32f10x_tim.o(.text)
    TIM_CCPreloadControl                     0x08002b59   Thumb Code    24  stm32f10x_tim.o(.text)
    TIM_OC1PreloadConfig                     0x08002b71   Thumb Code    18  stm32f10x_tim.o(.text)
    TIM_OC2PreloadConfig                     0x08002b83   Thumb Code    26  stm32f10x_tim.o(.text)
    TIM_OC3PreloadConfig                     0x08002b9d   Thumb Code    18  stm32f10x_tim.o(.text)
    TIM_OC4PreloadConfig                     0x08002baf   Thumb Code    26  stm32f10x_tim.o(.text)
    TIM_OC1FastConfig                        0x08002bc9   Thumb Code    18  stm32f10x_tim.o(.text)
    TIM_OC2FastConfig                        0x08002bdb   Thumb Code    26  stm32f10x_tim.o(.text)
    TIM_OC3FastConfig                        0x08002bf5   Thumb Code    18  stm32f10x_tim.o(.text)
    TIM_OC4FastConfig                        0x08002c07   Thumb Code    26  stm32f10x_tim.o(.text)
    TIM_ClearOC1Ref                          0x08002c21   Thumb Code    18  stm32f10x_tim.o(.text)
    TIM_ClearOC2Ref                          0x08002c33   Thumb Code    24  stm32f10x_tim.o(.text)
    TIM_ClearOC3Ref                          0x08002c4b   Thumb Code    18  stm32f10x_tim.o(.text)
    TIM_ClearOC4Ref                          0x08002c5d   Thumb Code    24  stm32f10x_tim.o(.text)
    TIM_OC1PolarityConfig                    0x08002c75   Thumb Code    18  stm32f10x_tim.o(.text)
    TIM_OC1NPolarityConfig                   0x08002c87   Thumb Code    18  stm32f10x_tim.o(.text)
    TIM_OC2PolarityConfig                    0x08002c99   Thumb Code    26  stm32f10x_tim.o(.text)
    TIM_OC2NPolarityConfig                   0x08002cb3   Thumb Code    26  stm32f10x_tim.o(.text)
    TIM_OC3PolarityConfig                    0x08002ccd   Thumb Code    26  stm32f10x_tim.o(.text)
    TIM_OC3NPolarityConfig                   0x08002ce7   Thumb Code    26  stm32f10x_tim.o(.text)
    TIM_OC4PolarityConfig                    0x08002d01   Thumb Code    26  stm32f10x_tim.o(.text)
    TIM_CCxCmd                               0x08002d1b   Thumb Code    30  stm32f10x_tim.o(.text)
    TIM_CCxNCmd                              0x08002d39   Thumb Code    30  stm32f10x_tim.o(.text)
    TIM_SelectOCxM                           0x08002d57   Thumb Code    82  stm32f10x_tim.o(.text)
    TIM_UpdateDisableConfig                  0x08002da9   Thumb Code    24  stm32f10x_tim.o(.text)
    TIM_UpdateRequestConfig                  0x08002dc1   Thumb Code    24  stm32f10x_tim.o(.text)
    TIM_SelectHallSensor                     0x08002dd9   Thumb Code    24  stm32f10x_tim.o(.text)
    TIM_SelectOnePulseMode                   0x08002df1   Thumb Code    18  stm32f10x_tim.o(.text)
    TIM_SelectOutputTrigger                  0x08002e03   Thumb Code    18  stm32f10x_tim.o(.text)
    TIM_SelectSlaveMode                      0x08002e15   Thumb Code    18  stm32f10x_tim.o(.text)
    TIM_SelectMasterSlaveMode                0x08002e27   Thumb Code    18  stm32f10x_tim.o(.text)
    TIM_SetCounter                           0x08002e39   Thumb Code     4  stm32f10x_tim.o(.text)
    TIM_SetAutoreload                        0x08002e3d   Thumb Code     4  stm32f10x_tim.o(.text)
    TIM_SetCompare1                          0x08002e41   Thumb Code     4  stm32f10x_tim.o(.text)
    TIM_SetCompare2                          0x08002e45   Thumb Code     4  stm32f10x_tim.o(.text)
    TIM_SetCompare3                          0x08002e49   Thumb Code     4  stm32f10x_tim.o(.text)
    TIM_SetCompare4                          0x08002e4d   Thumb Code     6  stm32f10x_tim.o(.text)
    TIM_SetClockDivision                     0x08002e53   Thumb Code    18  stm32f10x_tim.o(.text)
    TIM_GetCapture1                          0x08002e65   Thumb Code     6  stm32f10x_tim.o(.text)
    TIM_GetCapture2                          0x08002e6b   Thumb Code     6  stm32f10x_tim.o(.text)
    TIM_GetCapture3                          0x08002e71   Thumb Code     6  stm32f10x_tim.o(.text)
    TIM_GetCapture4                          0x08002e77   Thumb Code     8  stm32f10x_tim.o(.text)
    TIM_GetCounter                           0x08002e7f   Thumb Code     6  stm32f10x_tim.o(.text)
    TIM_GetPrescaler                         0x08002e85   Thumb Code     6  stm32f10x_tim.o(.text)
    TIM_GetFlagStatus                        0x08002e8b   Thumb Code    18  stm32f10x_tim.o(.text)
    TIM_ClearFlag                            0x08002e9d   Thumb Code     6  stm32f10x_tim.o(.text)
    TIM_GetITStatus                          0x08002ea3   Thumb Code    34  stm32f10x_tim.o(.text)
    TIM_ClearITPendingBit                    0x08002ec5   Thumb Code     6  stm32f10x_tim.o(.text)
    DMA_DeInit                               0x08002ecd   Thumb Code   324  stm32f10x_dma.o(.text)
    DMA_Init                                 0x08003011   Thumb Code    60  stm32f10x_dma.o(.text)
    DMA_StructInit                           0x0800304d   Thumb Code    26  stm32f10x_dma.o(.text)
    DMA_Cmd                                  0x08003067   Thumb Code    24  stm32f10x_dma.o(.text)
    DMA_ITConfig                             0x0800307f   Thumb Code    18  stm32f10x_dma.o(.text)
    DMA_SetCurrDataCounter                   0x08003091   Thumb Code     4  stm32f10x_dma.o(.text)
    DMA_GetCurrDataCounter                   0x08003095   Thumb Code     8  stm32f10x_dma.o(.text)
    DMA_GetFlagStatus                        0x0800309d   Thumb Code    40  stm32f10x_dma.o(.text)
    DMA_ClearFlag                            0x080030c5   Thumb Code    22  stm32f10x_dma.o(.text)
    DMA_GetITStatus                          0x080030db   Thumb Code    40  stm32f10x_dma.o(.text)
    DMA_ClearITPendingBit                    0x08003103   Thumb Code    22  stm32f10x_dma.o(.text)
    __use_no_semihosting                     0x08003121   Thumb Code     2  use_no_semi_2.o(.text)
    __c89vsprintf                            0x08003125   Thumb Code    32  c89vsprintf.o(.text)
    __2printf                                0x08003149   Thumb Code    20  __2printf.o(.text)
    _printf_str                              0x08003161   Thumb Code    82  _printf_str.o(.text)
    _printf_int_dec                          0x080031b5   Thumb Code   104  _printf_dec.o(.text)
    __printf                                 0x0800322d   Thumb Code   388  __printf_flags_ss_wp.o(.text)
    strstr                                   0x080033b5   Thumb Code    36  strstr.o(.text)
    strlen                                   0x080033d9   Thumb Code    62  strlen.o(.text)
    strcat                                   0x08003417   Thumb Code    24  strcat.o(.text)
    __aeabi_memcpy4                          0x0800342f   Thumb Code     0  rt_memcpy_w.o(.text)
    __aeabi_memcpy8                          0x0800342f   Thumb Code     0  rt_memcpy_w.o(.text)
    __rt_memcpy_w                            0x0800342f   Thumb Code   100  rt_memcpy_w.o(.text)
    _memcpy_lastbytes_aligned                0x08003477   Thumb Code     0  rt_memcpy_w.o(.text)
    __use_two_region_memory                  0x08003493   Thumb Code     2  heapauxi.o(.text)
    __rt_heap_escrow$2region                 0x08003495   Thumb Code     2  heapauxi.o(.text)
    __rt_heap_expand$2region                 0x08003497   Thumb Code     2  heapauxi.o(.text)
    __I$use$semihosting                      0x08003499   Thumb Code     0  use_no_semi.o(.text)
    __use_no_semihosting_swi                 0x08003499   Thumb Code     2  use_no_semi.o(.text)
    _printf_pre_padding                      0x0800349b   Thumb Code    44  _printf_pad.o(.text)
    _printf_post_padding                     0x080034c7   Thumb Code    34  _printf_pad.o(.text)
    _printf_truncate_signed                  0x080034e9   Thumb Code    18  _printf_truncate.o(.text)
    _printf_truncate_unsigned                0x080034fb   Thumb Code    18  _printf_truncate.o(.text)
    _printf_int_common                       0x0800350d   Thumb Code   178  _printf_intcommon.o(.text)
    _printf_charcount                        0x080035bf   Thumb Code    40  _printf_charcount.o(.text)
    _printf_char_common                      0x080035f3   Thumb Code    32  _printf_char_common.o(.text)
    _sputc                                   0x08003619   Thumb Code    10  _sputc.o(.text)
    _printf_cs_common                        0x08003623   Thumb Code    20  _printf_char.o(.text)
    _printf_char                             0x08003637   Thumb Code    16  _printf_char.o(.text)
    _printf_string                           0x08003647   Thumb Code     8  _printf_char.o(.text)
    _printf_char_file                        0x08003651   Thumb Code    32  _printf_char_file.o(.text)
    _printf_wctomb                           0x08003675   Thumb Code   182  _printf_wctomb.o(.text)
    _printf_longlong_dec                     0x08003731   Thumb Code   108  _printf_longlong_dec.o(.text)
    _printf_longlong_oct                     0x080037ad   Thumb Code    68  _printf_oct_int_ll.o(.text)
    _printf_int_oct                          0x080037f1   Thumb Code    24  _printf_oct_int_ll.o(.text)
    _printf_ll_oct                           0x08003809   Thumb Code    12  _printf_oct_int_ll.o(.text)
    _printf_longlong_hex                     0x0800381d   Thumb Code    86  _printf_hex_int_ll_ptr.o(.text)
    _printf_int_hex                          0x08003873   Thumb Code    28  _printf_hex_int_ll_ptr.o(.text)
    _printf_ll_hex                           0x0800388f   Thumb Code    12  _printf_hex_int_ll_ptr.o(.text)
    _printf_hex_ptr                          0x0800389b   Thumb Code    18  _printf_hex_int_ll_ptr.o(.text)
    _ll_udiv10                               0x080038b1   Thumb Code   138  lludiv10.o(.text)
    __lib_sel_fp_printf                      0x0800393b   Thumb Code     2  _printf_fp_dec.o(.text)
    _printf_fp_dec_real                      0x08003ae9   Thumb Code   620  _printf_fp_dec.o(.text)
    _printf_lcs_common                       0x08003d55   Thumb Code    20  _printf_wchar.o(.text)
    _printf_wchar                            0x08003d69   Thumb Code    16  _printf_wchar.o(.text)
    _printf_wstring                          0x08003d79   Thumb Code     8  _printf_wchar.o(.text)
    ferror                                   0x08003d81   Thumb Code     8  ferror.o(.text)
    _wcrtomb                                 0x08003d89   Thumb Code    64  _wcrtomb.o(.text)
    __user_setup_stackheap                   0x08003dc9   Thumb Code    74  sys_stackheap_outer.o(.text)
    __rt_ctype_table                         0x08003e15   Thumb Code    16  rt_ctype_table.o(.text)
    __rt_locale                              0x08003e25   Thumb Code     8  rt_locale_intlibspace.o(.text)
    _printf_fp_infnan                        0x08003e2d   Thumb Code   112  _printf_fp_infnan.o(.text)
    _btod_etento                             0x08003ead   Thumb Code   216  bigflt0.o(.text)
    exit                                     0x08003f89   Thumb Code    12  exit.o(.text)
    __user_libspace                          0x08003f95   Thumb Code     8  libspace.o(.text)
    __user_perproc_libspace                  0x08003f95   Thumb Code     0  libspace.o(.text)
    __user_perthread_libspace                0x08003f95   Thumb Code     0  libspace.o(.text)
    strcmp                                   0x08003f9d   Thumb Code   128  strcmpv7m.o(.text)
    _btod_d2e                                0x0800401d   Thumb Code    62  btod.o(CL$$btod_d2e)
    _d2e_denorm_low                          0x0800405b   Thumb Code    70  btod.o(CL$$btod_d2e_denorm_low)
    _d2e_norm_op1                            0x080040a1   Thumb Code    96  btod.o(CL$$btod_d2e_norm_op1)
    __btod_div_common                        0x08004101   Thumb Code   696  btod.o(CL$$btod_div_common)
    _e2e                                     0x08004439   Thumb Code   198  btod.o(CL$$btod_e2e)
    _btod_ediv                               0x080044ff   Thumb Code    40  btod.o(CL$$btod_ediv)
    _btod_emul                               0x08004527   Thumb Code    40  btod.o(CL$$btod_emul)
    __btod_mult_common                       0x0800454f   Thumb Code   580  btod.o(CL$$btod_mult_common)
    __ARM_fpclassify                         0x08004793   Thumb Code    40  fpclassify.o(i.__ARM_fpclassify)
    _is_digit                                0x080047bb   Thumb Code    14  __printf_wp.o(i._is_digit)
    _get_lc_numeric                          0x080047c9   Thumb Code    44  lc_numeric_c.o(locale$$code)
    _get_lc_ctype                            0x080047f5   Thumb Code    44  lc_ctype_c.o(locale$$code)
    __aeabi_d2f                              0x08004821   Thumb Code     0  d2f.o(x$fpl$d2f)
    _d2f                                     0x08004821   Thumb Code    98  d2f.o(x$fpl$d2f)
    __aeabi_i2d                              0x08004883   Thumb Code     0  dflt_clz.o(x$fpl$dflt)
    _dflt                                    0x08004883   Thumb Code    46  dflt_clz.o(x$fpl$dflt)
    __aeabi_dmul                             0x080048b1   Thumb Code     0  dmul.o(x$fpl$dmul)
    _dmul                                    0x080048b1   Thumb Code   332  dmul.o(x$fpl$dmul)
    __fpl_dnaninf                            0x08004a05   Thumb Code   156  dnaninf.o(x$fpl$dnaninf)
    __fpl_dretinf                            0x08004aa1   Thumb Code    12  dretinf.o(x$fpl$dretinf)
    __fpl_fretinf                            0x08004aad   Thumb Code    10  fretinf.o(x$fpl$fretinf)
    _printf_fp_dec                           0x08004ab7   Thumb Code     4  printf1.o(x$fpl$printf1)
    __I$use$fp                               0x08004aba   Number         0  usenofp.o(x$fpl$usenofp)
    Region$$Table$$Base                      0x08004b90   Number         0  anon$$obj.o(Region$$Table)
    Region$$Table$$Limit                     0x08004bb0   Number         0  anon$$obj.o(Region$$Table)
    __ctype                                  0x08004bd9   Data           0  lc_ctype_c.o(locale$$data)
    SystemCoreClock                          0x20000000   Data           4  system_stm32f10x.o(.data)
    AHBPrescTable                            0x20000004   Data          16  system_stm32f10x.o(.data)
    USART2_RX_STA                            0x20000014   Data           2  usart2.o(.data)
    Read_ID                                  0x20000018   Data           1  usart3.o(.data)
    Tx_Buffer1                               0x20000019   Data           8  usart3.o(.data)
    receive_finished                         0x20000024   Data           4  usart3.o(.data)
    Voltage_data                             0x20000028   Data           4  usart3.o(.data)
    Current_data                             0x2000002c   Data           4  usart3.o(.data)
    Power_data                               0x20000030   Data           4  usart3.o(.data)
    Energy_data                              0x20000034   Data           4  usart3.o(.data)
    Pf_data                                  0x20000038   Data           4  usart3.o(.data)
    CO2_data                                 0x2000003c   Data           4  usart3.o(.data)
    HZ                                       0x20000040   Data           4  usart3.o(.data)
    i                                        0x20000044   Data           4  usart3.o(.data)
    j                                        0x20000048   Data           4  usart3.o(.data)
    Pf_data1                                 0x2000004c   Data           4  usart3.o(.data)
    HZ1                                      0x20000050   Data           4  usart3.o(.data)
    read_enable                              0x20000054   Data           4  usart3.o(.data)
    reveive_numbe                            0x20000058   Data           4  usart3.o(.data)
    USART3_RX_STA                            0x2000005c   Data           2  usart3.o(.data)
    temp                                     0x2000005e   Data           1  usart3.o(.data)
    __stdout                                 0x20000064   Data           4  usart.o(.data)
    USART_RX_STA                             0x20000068   Data           2  usart.o(.data)
    USART2_TX_BUF                            0x20000080   Data         200  usart2.o(.bss)
    USART2_RX_BUF                            0x20000148   Data         200  usart2.o(.bss)
    USART3_RX_BUF                            0x20000210   Data         300  usart3.o(.bss)
    USART3_TX_BUF                            0x2000033c   Data         300  usart3.o(.bss)
    Tx_Buffer2                               0x20000468   Data          13  usart3.o(.bss)
    Rx_Buffer1                               0x20000475   Data          40  usart3.o(.bss)
    Rx_Buffer                                0x2000049d   Data          40  usart3.o(.bss)
    mqtt_Buffer                              0x200004c5   Data          80  usart3.o(.bss)
    string                                   0x20000515   Data          16  usart3.o(.bss)
    USART_RX_BUF                             0x20000525   Data         200  usart.o(.bss)
    __libspace_start                         0x200005f0   Data          96  libspace.o(.bss)
    __temporary_stack_top$libspace           0x20000650   Data           0  libspace.o(.bss)



==============================================================================

Memory Map of the image

  Image Entry point : 0x08000131

  Load Region LR_IROM1 (Base: 0x08000000, Size: 0x00004d5c, Max: 0x00040000, ABSOLUTE)

    Execution Region ER_IROM1 (Base: 0x08000000, Size: 0x00004cdc, Max: 0x00040000, ABSOLUTE)

    Base Addr    Size         Type   Attr      Idx    E Section Name        Object

    0x08000000   0x00000130   Data   RO          337    RESET               startup_stm32f10x_hd.o
    0x08000130   0x00000008   Code   RO          466  * !!!main             c_w.l(__main.o)
    0x08000138   0x00000034   Code   RO          767    !!!scatter          c_w.l(__scatter.o)
    0x0800016c   0x0000001a   Code   RO          769    !!handler_copy      c_w.l(__scatter_copy.o)
    0x08000186   0x00000002   PAD
    0x08000188   0x0000001c   Code   RO          771    !!handler_zi        c_w.l(__scatter_zi.o)
    0x080001a4   0x00000000   Code   RO          455    .ARM.Collect$$_printf_percent$$00000000  c_w.l(_printf_percent.o)
    0x080001a4   0x00000006   Code   RO          530    .ARM.Collect$$_printf_percent$$00000001  c_w.l(_printf_n.o)
    0x080001aa   0x00000006   Code   RO          532    .ARM.Collect$$_printf_percent$$00000002  c_w.l(_printf_p.o)
    0x080001b0   0x00000006   Code   RO          535    .ARM.Collect$$_printf_percent$$00000003  c_w.l(_printf_f.o)
    0x080001b6   0x00000006   Code   RO          536    .ARM.Collect$$_printf_percent$$00000004  c_w.l(_printf_e.o)
    0x080001bc   0x00000006   Code   RO          537    .ARM.Collect$$_printf_percent$$00000005  c_w.l(_printf_g.o)
    0x080001c2   0x00000006   Code   RO          538    .ARM.Collect$$_printf_percent$$00000006  c_w.l(_printf_a.o)
    0x080001c8   0x0000000a   Code   RO          543    .ARM.Collect$$_printf_percent$$00000007  c_w.l(_printf_ll.o)
    0x080001d2   0x00000006   Code   RO          534    .ARM.Collect$$_printf_percent$$00000008  c_w.l(_printf_i.o)
    0x080001d8   0x00000006   Code   RO          453    .ARM.Collect$$_printf_percent$$00000009  c_w.l(_printf_d.o)
    0x080001de   0x00000006   Code   RO          454    .ARM.Collect$$_printf_percent$$0000000A  c_w.l(_printf_u.o)
    0x080001e4   0x00000006   Code   RO          533    .ARM.Collect$$_printf_percent$$0000000B  c_w.l(_printf_o.o)
    0x080001ea   0x00000006   Code   RO          531    .ARM.Collect$$_printf_percent$$0000000C  c_w.l(_printf_x.o)
    0x080001f0   0x00000006   Code   RO          540    .ARM.Collect$$_printf_percent$$0000000D  c_w.l(_printf_lli.o)
    0x080001f6   0x00000006   Code   RO          541    .ARM.Collect$$_printf_percent$$0000000E  c_w.l(_printf_lld.o)
    0x080001fc   0x00000006   Code   RO          542    .ARM.Collect$$_printf_percent$$0000000F  c_w.l(_printf_llu.o)
    0x08000202   0x00000006   Code   RO          547    .ARM.Collect$$_printf_percent$$00000010  c_w.l(_printf_llo.o)
    0x08000208   0x00000006   Code   RO          548    .ARM.Collect$$_printf_percent$$00000011  c_w.l(_printf_llx.o)
    0x0800020e   0x0000000a   Code   RO          544    .ARM.Collect$$_printf_percent$$00000012  c_w.l(_printf_l.o)
    0x08000218   0x00000006   Code   RO          529    .ARM.Collect$$_printf_percent$$00000013  c_w.l(_printf_c.o)
    0x0800021e   0x00000006   Code   RO          452    .ARM.Collect$$_printf_percent$$00000014  c_w.l(_printf_s.o)
    0x08000224   0x00000006   Code   RO          545    .ARM.Collect$$_printf_percent$$00000015  c_w.l(_printf_lc.o)
    0x0800022a   0x00000006   Code   RO          546    .ARM.Collect$$_printf_percent$$00000016  c_w.l(_printf_ls.o)
    0x08000230   0x00000004   Code   RO          539    .ARM.Collect$$_printf_percent$$00000017  c_w.l(_printf_percent_end.o)
    0x08000234   0x00000002   Code   RO          633    .ARM.Collect$$libinit$$00000000  c_w.l(libinit.o)
    0x08000236   0x00000000   Code   RO          649    .ARM.Collect$$libinit$$00000002  c_w.l(libinit2.o)
    0x08000236   0x00000000   Code   RO          651    .ARM.Collect$$libinit$$00000004  c_w.l(libinit2.o)
    0x08000236   0x00000000   Code   RO          654    .ARM.Collect$$libinit$$0000000A  c_w.l(libinit2.o)
    0x08000236   0x00000000   Code   RO          656    .ARM.Collect$$libinit$$0000000C  c_w.l(libinit2.o)
    0x08000236   0x00000000   Code   RO          658    .ARM.Collect$$libinit$$0000000E  c_w.l(libinit2.o)
    0x08000236   0x00000006   Code   RO          659    .ARM.Collect$$libinit$$0000000F  c_w.l(libinit2.o)
    0x0800023c   0x00000000   Code   RO          661    .ARM.Collect$$libinit$$00000011  c_w.l(libinit2.o)
    0x0800023c   0x0000000c   Code   RO          662    .ARM.Collect$$libinit$$00000012  c_w.l(libinit2.o)
    0x08000248   0x00000000   Code   RO          663    .ARM.Collect$$libinit$$00000013  c_w.l(libinit2.o)
    0x08000248   0x00000000   Code   RO          665    .ARM.Collect$$libinit$$00000015  c_w.l(libinit2.o)
    0x08000248   0x0000000a   Code   RO          666    .ARM.Collect$$libinit$$00000016  c_w.l(libinit2.o)
    0x08000252   0x00000000   Code   RO          667    .ARM.Collect$$libinit$$00000017  c_w.l(libinit2.o)
    0x08000252   0x00000000   Code   RO          669    .ARM.Collect$$libinit$$00000019  c_w.l(libinit2.o)
    0x08000252   0x00000000   Code   RO          671    .ARM.Collect$$libinit$$0000001B  c_w.l(libinit2.o)
    0x08000252   0x00000000   Code   RO          673    .ARM.Collect$$libinit$$0000001D  c_w.l(libinit2.o)
    0x08000252   0x00000000   Code   RO          675    .ARM.Collect$$libinit$$0000001F  c_w.l(libinit2.o)
    0x08000252   0x00000000   Code   RO          677    .ARM.Collect$$libinit$$00000021  c_w.l(libinit2.o)
    0x08000252   0x00000000   Code   RO          679    .ARM.Collect$$libinit$$00000023  c_w.l(libinit2.o)
    0x08000252   0x00000000   Code   RO          681    .ARM.Collect$$libinit$$00000025  c_w.l(libinit2.o)
    0x08000252   0x00000000   Code   RO          685    .ARM.Collect$$libinit$$0000002C  c_w.l(libinit2.o)
    0x08000252   0x00000000   Code   RO          687    .ARM.Collect$$libinit$$0000002E  c_w.l(libinit2.o)
    0x08000252   0x00000000   Code   RO          689    .ARM.Collect$$libinit$$00000030  c_w.l(libinit2.o)
    0x08000252   0x00000000   Code   RO          691    .ARM.Collect$$libinit$$00000032  c_w.l(libinit2.o)
    0x08000252   0x00000002   Code   RO          692    .ARM.Collect$$libinit$$00000033  c_w.l(libinit2.o)
    0x08000254   0x00000002   Code   RO          710    .ARM.Collect$$libshutdown$$00000000  c_w.l(libshutdown.o)
    0x08000256   0x00000000   Code   RO          721    .ARM.Collect$$libshutdown$$00000003  c_w.l(libshutdown2.o)
    0x08000256   0x00000000   Code   RO          724    .ARM.Collect$$libshutdown$$00000006  c_w.l(libshutdown2.o)
    0x08000256   0x00000000   Code   RO          727    .ARM.Collect$$libshutdown$$00000009  c_w.l(libshutdown2.o)
    0x08000256   0x00000000   Code   RO          729    .ARM.Collect$$libshutdown$$0000000B  c_w.l(libshutdown2.o)
    0x08000256   0x00000000   Code   RO          732    .ARM.Collect$$libshutdown$$0000000E  c_w.l(libshutdown2.o)
    0x08000256   0x00000002   Code   RO          733    .ARM.Collect$$libshutdown$$0000000F  c_w.l(libshutdown2.o)
    0x08000258   0x00000000   Code   RO          480    .ARM.Collect$$rtentry$$00000000  c_w.l(__rtentry.o)
    0x08000258   0x00000000   Code   RO          559    .ARM.Collect$$rtentry$$00000002  c_w.l(__rtentry2.o)
    0x08000258   0x00000006   Code   RO          571    .ARM.Collect$$rtentry$$00000004  c_w.l(__rtentry4.o)
    0x0800025e   0x00000000   Code   RO          561    .ARM.Collect$$rtentry$$00000009  c_w.l(__rtentry2.o)
    0x0800025e   0x00000004   Code   RO          562    .ARM.Collect$$rtentry$$0000000A  c_w.l(__rtentry2.o)
    0x08000262   0x00000000   Code   RO          564    .ARM.Collect$$rtentry$$0000000C  c_w.l(__rtentry2.o)
    0x08000262   0x00000008   Code   RO          565    .ARM.Collect$$rtentry$$0000000D  c_w.l(__rtentry2.o)
    0x0800026a   0x00000002   Code   RO          641    .ARM.Collect$$rtexit$$00000000  c_w.l(rtexit.o)
    0x0800026c   0x00000000   Code   RO          694    .ARM.Collect$$rtexit$$00000002  c_w.l(rtexit2.o)
    0x0800026c   0x00000004   Code   RO          695    .ARM.Collect$$rtexit$$00000003  c_w.l(rtexit2.o)
    0x08000270   0x00000006   Code   RO          696    .ARM.Collect$$rtexit$$00000004  c_w.l(rtexit2.o)
    0x08000276   0x00000002   PAD
    0x08000278   0x000003b4   Code   RO            1    .text               main.o
    0x0800062c   0x0000001a   Code   RO          135    .text               stm32f10x_it.o
    0x08000646   0x00000002   PAD
    0x08000648   0x000001e0   Code   RO          176    .text               system_stm32f10x.o
    0x08000828   0x0000004c   Code   RO          194    .text               led.o
    0x08000874   0x00000278   Code   RO          206    .text               usart2.o
    0x08000aec   0x00000694   Code   RO          232    .text               usart3.o
    0x08001180   0x000000f8   Code   RO          258    .text               key.o
    0x08001278   0x000000d4   Code   RO          271    .text               delay.o
    0x0800134c   0x00000140   Code   RO          302    .text               usart.o
    0x0800148c   0x00000040   Code   RO          338    .text               startup_stm32f10x_hd.o
    0x080014cc   0x0000035c   Code   RO          342    .text               stm32f10x_gpio.o
    0x08001828   0x000003a4   Code   RO          354    .text               stm32f10x_rcc.o
    0x08001bcc   0x00000408   Code   RO          368    .text               stm32f10x_usart.o
    0x08001fd4   0x000000dc   Code   RO          380    .text               misc.o
    0x080020b0   0x00000e1a   Code   RO          392    .text               stm32f10x_tim.o
    0x08002eca   0x00000002   PAD
    0x08002ecc   0x00000254   Code   RO          404    .text               stm32f10x_dma.o
    0x08003120   0x00000002   Code   RO          418    .text               c_w.l(use_no_semi_2.o)
    0x08003122   0x00000002   PAD
    0x08003124   0x00000024   Code   RO          420    .text               c_w.l(c89vsprintf.o)
    0x08003148   0x00000018   Code   RO          422    .text               c_w.l(__2printf.o)
    0x08003160   0x00000052   Code   RO          428    .text               c_w.l(_printf_str.o)
    0x080031b2   0x00000002   PAD
    0x080031b4   0x00000078   Code   RO          430    .text               c_w.l(_printf_dec.o)
    0x0800322c   0x00000188   Code   RO          449    .text               c_w.l(__printf_flags_ss_wp.o)
    0x080033b4   0x00000024   Code   RO          456    .text               c_w.l(strstr.o)
    0x080033d8   0x0000003e   Code   RO          458    .text               c_w.l(strlen.o)
    0x08003416   0x00000018   Code   RO          460    .text               c_w.l(strcat.o)
    0x0800342e   0x00000064   Code   RO          462    .text               c_w.l(rt_memcpy_w.o)
    0x08003492   0x00000006   Code   RO          464    .text               c_w.l(heapauxi.o)
    0x08003498   0x00000002   Code   RO          478    .text               c_w.l(use_no_semi.o)
    0x0800349a   0x0000004e   Code   RO          481    .text               c_w.l(_printf_pad.o)
    0x080034e8   0x00000024   Code   RO          483    .text               c_w.l(_printf_truncate.o)
    0x0800350c   0x000000b2   Code   RO          485    .text               c_w.l(_printf_intcommon.o)
    0x080035be   0x00000028   Code   RO          487    .text               c_w.l(_printf_charcount.o)
    0x080035e6   0x00000002   PAD
    0x080035e8   0x00000030   Code   RO          489    .text               c_w.l(_printf_char_common.o)
    0x08003618   0x0000000a   Code   RO          491    .text               c_w.l(_sputc.o)
    0x08003622   0x0000002c   Code   RO          493    .text               c_w.l(_printf_char.o)
    0x0800364e   0x00000002   PAD
    0x08003650   0x00000024   Code   RO          495    .text               c_w.l(_printf_char_file.o)
    0x08003674   0x000000bc   Code   RO          497    .text               c_w.l(_printf_wctomb.o)
    0x08003730   0x0000007c   Code   RO          500    .text               c_w.l(_printf_longlong_dec.o)
    0x080037ac   0x00000070   Code   RO          506    .text               c_w.l(_printf_oct_int_ll.o)
    0x0800381c   0x00000094   Code   RO          526    .text               c_w.l(_printf_hex_int_ll_ptr.o)
    0x080038b0   0x0000008a   Code   RO          573    .text               c_w.l(lludiv10.o)
    0x0800393a   0x0000041a   Code   RO          575    .text               c_w.l(_printf_fp_dec.o)
    0x08003d54   0x0000002c   Code   RO          579    .text               c_w.l(_printf_wchar.o)
    0x08003d80   0x00000008   Code   RO          581    .text               c_w.l(ferror.o)
    0x08003d88   0x00000040   Code   RO          585    .text               c_w.l(_wcrtomb.o)
    0x08003dc8   0x0000004a   Code   RO          587    .text               c_w.l(sys_stackheap_outer.o)
    0x08003e12   0x00000002   PAD
    0x08003e14   0x00000010   Code   RO          589    .text               c_w.l(rt_ctype_table.o)
    0x08003e24   0x00000008   Code   RO          594    .text               c_w.l(rt_locale_intlibspace.o)
    0x08003e2c   0x00000080   Code   RO          596    .text               c_w.l(_printf_fp_infnan.o)
    0x08003eac   0x000000dc   Code   RO          598    .text               c_w.l(bigflt0.o)
    0x08003f88   0x0000000c   Code   RO          626    .text               c_w.l(exit.o)
    0x08003f94   0x00000008   Code   RO          638    .text               c_w.l(libspace.o)
    0x08003f9c   0x00000080   Code   RO          646    .text               c_w.l(strcmpv7m.o)
    0x0800401c   0x0000003e   Code   RO          601    CL$$btod_d2e        c_w.l(btod.o)
    0x0800405a   0x00000046   Code   RO          603    CL$$btod_d2e_denorm_low  c_w.l(btod.o)
    0x080040a0   0x00000060   Code   RO          602    CL$$btod_d2e_norm_op1  c_w.l(btod.o)
    0x08004100   0x00000338   Code   RO          611    CL$$btod_div_common  c_w.l(btod.o)
    0x08004438   0x000000c6   Code   RO          608    CL$$btod_e2e        c_w.l(btod.o)
    0x080044fe   0x00000028   Code   RO          605    CL$$btod_ediv       c_w.l(btod.o)
    0x08004526   0x00000028   Code   RO          604    CL$$btod_emul       c_w.l(btod.o)
    0x0800454e   0x00000244   Code   RO          610    CL$$btod_mult_common  c_w.l(btod.o)
    0x08004792   0x00000028   Code   RO          636    i.__ARM_fpclassify  m_ws.l(fpclassify.o)
    0x080047ba   0x0000000e   Code   RO          442    i._is_digit         c_w.l(__printf_wp.o)
    0x080047c8   0x0000002c   Code   RO          624    locale$$code        c_w.l(lc_numeric_c.o)
    0x080047f4   0x0000002c   Code   RO          644    locale$$code        c_w.l(lc_ctype_c.o)
    0x08004820   0x00000062   Code   RO          468    x$fpl$d2f           fz_ws.l(d2f.o)
    0x08004882   0x0000002e   Code   RO          471    x$fpl$dflt          fz_ws.l(dflt_clz.o)
    0x080048b0   0x00000154   Code   RO          476    x$fpl$dmul          fz_ws.l(dmul.o)
    0x08004a04   0x0000009c   Code   RO          549    x$fpl$dnaninf       fz_ws.l(dnaninf.o)
    0x08004aa0   0x0000000c   Code   RO          551    x$fpl$dretinf       fz_ws.l(dretinf.o)
    0x08004aac   0x0000000a   Code   RO          553    x$fpl$fretinf       fz_ws.l(fretinf.o)
    0x08004ab6   0x00000004   Code   RO          555    x$fpl$printf1       fz_ws.l(printf1.o)
    0x08004aba   0x00000000   Code   RO          557    x$fpl$usenofp       fz_ws.l(usenofp.o)
    0x08004aba   0x00000011   Data   RO          450    .constdata          c_w.l(__printf_flags_ss_wp.o)
    0x08004acb   0x00000001   PAD
    0x08004acc   0x00000008   Data   RO          498    .constdata          c_w.l(_printf_wctomb.o)
    0x08004ad4   0x00000028   Data   RO          527    .constdata          c_w.l(_printf_hex_int_ll_ptr.o)
    0x08004afc   0x00000094   Data   RO          599    .constdata          c_w.l(bigflt0.o)
    0x08004b90   0x00000020   Data   RO          765    Region$$Table       anon$$obj.o
    0x08004bb0   0x0000001c   Data   RO          623    locale$$data        c_w.l(lc_numeric_c.o)
    0x08004bcc   0x00000110   Data   RO          643    locale$$data        c_w.l(lc_ctype_c.o)


    Execution Region RW_IRAM1 (Base: 0x20000000, Size: 0x00000c50, Max: 0x0000c000, ABSOLUTE)

    Base Addr    Size         Type   Attr      Idx    E Section Name        Object

    0x20000000   0x00000014   Data   RW          177    .data               system_stm32f10x.o
    0x20000014   0x00000002   Data   RW          208    .data               usart2.o
    0x20000016   0x00000002   PAD
    0x20000018   0x00000047   Data   RW          234    .data               usart3.o
    0x2000005f   0x00000001   Data   RW          259    .data               key.o
    0x20000060   0x00000004   Data   RW          272    .data               delay.o
    0x20000064   0x00000006   Data   RW          304    .data               usart.o
    0x2000006a   0x00000014   Data   RW          355    .data               stm32f10x_rcc.o
    0x2000007e   0x00000002   PAD
    0x20000080   0x00000190   Zero   RW          207    .bss                usart2.o
    0x20000210   0x00000315   Zero   RW          233    .bss                usart3.o
    0x20000525   0x000000c8   Zero   RW          303    .bss                usart.o
    0x200005ed   0x00000003   PAD
    0x200005f0   0x00000060   Zero   RW          639    .bss                c_w.l(libspace.o)
    0x20000650   0x00000200   Zero   RW          336    HEAP                startup_stm32f10x_hd.o
    0x20000850   0x00000400   Zero   RW          335    STACK               startup_stm32f10x_hd.o


==============================================================================

Image component sizes


      Code (inc. data)   RO Data    RW Data    ZI Data      Debug   Object Name

       212         18          0          4          0        983   delay.o
       248         18          0          1          0        808   key.o
        76          8          0          0          0        479   led.o
       948        392          0          0          0     263319   main.o
       220         22          0          0          0       1761   misc.o
        64         26        304          0       1536        780   startup_stm32f10x_hd.o
       596          8          0          0          0       4290   stm32f10x_dma.o
       860         38          0          0          0       5605   stm32f10x_gpio.o
        26          0          0          0          0       1162   stm32f10x_it.o
       932         36          0         20          0       8756   stm32f10x_rcc.o
      3610         88          0          0          0      22088   stm32f10x_tim.o
      1032         22          0          0          0       8332   stm32f10x_usart.o
         0          0          0          0          0         32   sys.o
       480         38          0         20          0       1683   system_stm32f10x.o
       320         18          0          6        200       3066   usart.o
       632         30          0          2        400       3549   usart2.o
      1684        280          0         71        789       4779   usart3.o

    ----------------------------------------------------------------------
     11944       1042        336        128       2928     331472   Object Totals
         0          0         32          0          0          0   (incl. Generated)
         4          0          0          4          3          0   (incl. Padding)

    ----------------------------------------------------------------------

      Code (inc. data)   RO Data    RW Data    ZI Data      Debug   Library Member Name

        24          4          0          0          0         84   __2printf.o
         8          0          0          0          0         68   __main.o
       392          4         17          0          0         92   __printf_flags_ss_wp.o
        14          0          0          0          0         68   __printf_wp.o
         0          0          0          0          0          0   __rtentry.o
        12          0          0          0          0          0   __rtentry2.o
         6          0          0          0          0          0   __rtentry4.o
        52          8          0          0          0          0   __scatter.o
        26          0          0          0          0          0   __scatter_copy.o
        28          0          0          0          0          0   __scatter_zi.o
         6          0          0          0          0          0   _printf_a.o
         6          0          0          0          0          0   _printf_c.o
        44          0          0          0          0        108   _printf_char.o
        48          6          0          0          0         96   _printf_char_common.o
        36          4          0          0          0         80   _printf_char_file.o
        40          0          0          0          0         68   _printf_charcount.o
         6          0          0          0          0          0   _printf_d.o
       120         16          0          0          0         92   _printf_dec.o
         6          0          0          0          0          0   _printf_e.o
         6          0          0          0          0          0   _printf_f.o
      1050          0          0          0          0        216   _printf_fp_dec.o
       128         16          0          0          0         84   _printf_fp_infnan.o
         6          0          0          0          0          0   _printf_g.o
       148          4         40          0          0        160   _printf_hex_int_ll_ptr.o
         6          0          0          0          0          0   _printf_i.o
       178          0          0          0          0         88   _printf_intcommon.o
        10          0          0          0          0          0   _printf_l.o
         6          0          0          0          0          0   _printf_lc.o
        10          0          0          0          0          0   _printf_ll.o
         6          0          0          0          0          0   _printf_lld.o
         6          0          0          0          0          0   _printf_lli.o
         6          0          0          0          0          0   _printf_llo.o
         6          0          0          0          0          0   _printf_llu.o
         6          0          0          0          0          0   _printf_llx.o
       124         16          0          0          0         92   _printf_longlong_dec.o
         6          0          0          0          0          0   _printf_ls.o
         6          0          0          0          0          0   _printf_n.o
         6          0          0          0          0          0   _printf_o.o
       112          8          0          0          0        124   _printf_oct_int_ll.o
         6          0          0          0          0          0   _printf_p.o
        78          0          0          0          0        108   _printf_pad.o
         0          0          0          0          0          0   _printf_percent.o
         4          0          0          0          0          0   _printf_percent_end.o
         6          0          0          0          0          0   _printf_s.o
        82          0          0          0          0         80   _printf_str.o
        36          0          0          0          0         84   _printf_truncate.o
         6          0          0          0          0          0   _printf_u.o
        44          0          0          0          0        108   _printf_wchar.o
       188          6          8          0          0         92   _printf_wctomb.o
         6          0          0          0          0          0   _printf_x.o
        10          0          0          0          0         68   _sputc.o
        64          0          0          0          0         92   _wcrtomb.o
       220          4        148          0          0         96   bigflt0.o
      1910        128          0          0          0        672   btod.o
        36          4          0          0          0         76   c89vsprintf.o
        12          0          0          0          0         72   exit.o
         8          0          0          0          0         68   ferror.o
         6          0          0          0          0        152   heapauxi.o
        44         10        272          0          0         76   lc_ctype_c.o
        44         10         28          0          0         76   lc_numeric_c.o
         2          0          0          0          0          0   libinit.o
        30          0          0          0          0          0   libinit2.o
         2          0          0          0          0          0   libshutdown.o
         2          0          0          0          0          0   libshutdown2.o
         8          4          0          0         96         68   libspace.o
       138          0          0          0          0         80   lludiv10.o
        16          4          0          0          0         76   rt_ctype_table.o
         8          4          0          0          0         68   rt_locale_intlibspace.o
       100          0          0          0          0         80   rt_memcpy_w.o
         2          0          0          0          0          0   rtexit.o
        10          0          0          0          0          0   rtexit2.o
        24          0          0          0          0         68   strcat.o
       128          0          0          0          0         68   strcmpv7m.o
        62          0          0          0          0         76   strlen.o
        36          0          0          0          0         80   strstr.o
        74          0          0          0          0         80   sys_stackheap_outer.o
         2          0          0          0          0         68   use_no_semi.o
         2          0          0          0          0         68   use_no_semi_2.o
        98          4          0          0          0         92   d2f.o
        46          0          0          0          0         68   dflt_clz.o
       340         12          0          0          0        104   dmul.o
       156          4          0          0          0         92   dnaninf.o
        12          0          0          0          0         68   dretinf.o
        10          0          0          0          0         68   fretinf.o
         4          0          0          0          0         68   printf1.o
         0          0          0          0          0          0   usenofp.o
        40          0          0          0          0         68   fpclassify.o

    ----------------------------------------------------------------------
      6882        280        514          0         96       4948   Library Totals
        14          0          1          0          0          0   (incl. Padding)

    ----------------------------------------------------------------------

      Code (inc. data)   RO Data    RW Data    ZI Data      Debug   Library Name

      6162        260        513          0         96       4320   c_w.l
       666         20          0          0          0        560   fz_ws.l
        40          0          0          0          0         68   m_ws.l

    ----------------------------------------------------------------------
      6882        280        514          0         96       4948   Library Totals

    ----------------------------------------------------------------------

==============================================================================


      Code (inc. data)   RO Data    RW Data    ZI Data      Debug   

     18826       1322        850        128       3024     332360   Grand Totals
     18826       1322        850        128       3024     332360   ELF Image Totals
     18826       1322        850        128          0          0   ROM Totals

==============================================================================

    Total RO  Size (Code + RO Data)                19676 (  19.21kB)
    Total RW  Size (RW Data + ZI Data)              3152 (   3.08kB)
    Total ROM Size (Code + RO Data + RW Data)      19804 (  19.34kB)

==============================================================================

